:020000040800F2
:100000001051002061020008E31800088B17000857
:10001000E118000891030008851A0008000000009C
:10002000000000000000000000000000A101000826
:100030009303000800000000FD010008E518000817
:100040007B0200087B0200087B0200087B0200089C
:100050007B0200087B0200087B0200087B0200088C
:100060007B0200087B0200087B0200087B0200087C
:100070007B0200087B0200087B0200087B0200086C
:100080007B0200087B0200087B0200087B0200085C
:100090007B0200087B0200087B0200087B0200084C
:1000A0007B0200087B0200087B0200087B0200083C
:1000B0007B020008A91900087B0200087B020008E7
:1000C0007B0200087B0200087B0200087B0200081C
:1000D0007B0200087B0200087B0200087B0200080C
:1000E0007B0200087B0200087B0200087B020008FC
:1000F0007B0200087B0200087B0200087B020008EC
:100100000000000000000000000000007B0200086A
:100110007B0200087B0200087B0200087B020008CB
:100120007B0200087B0200087B0200087B020008BB
:100130007B0200087B0200080000000000000000B5
:100140007B0200087B0200087B0200080000000020
:10015000000000000000000000000000000000009F
:1001600000000000000000007B0200087B02000885
:100170007B020008000000000000000000000000FA
:10018000000000007B020008DFF810D000F0EEF85D
:1001900000480047C51A0008AFF300801051002046
:1001A0002C4B19680868B0E8F04F80F30988BFF35A
:1001B0006F8F4FF0000080F311887047000000003F
:1001C00008480068006880F308884FF0000080F35A
:1001D000148862B661B6BFF34F8FBFF36F8F00DF35
:1001E00000BF00BF08ED00E0DFF80C00016841F43B
:1001F00070010160704700BF88ED00E0EFF30980F7
:10020000BFF36F8F134B1A681EF0100F08BF20ED5D
:10021000108A20E9F04F106009B44FF0BF0080F35E
:100220001188BFF34F8FBFF36F8F01F03BFF4FF08B
:10023000000080F3118809BC19680868B0E8F04F25
:100240001EF0100F08BFB0EC108A80F30988BFF3CE
:100250006F8F704714000020EFF305807047000097
:100260000648804706480047FEE7FEE7FEE7FEE750
:10027000FEE7FEE7FEE7FEE7FEE7FEE79919000866
:10028000890100082DE9F05F0546002092469B4653
:1002900088460646814640241BE02846414647469C
:1002A000224600F020F853465A46C01A914110D316
:1002B00011461846224600F04AF82D1A67EB01084D
:1002C0004F4622460120002100F041F817EB0009BB
:1002D0004E41201EA4F10104DFDC484631462A4687
:1002E0004346BDE8F09F202A04DB203A21FA02F0C1
:1002F0000021704721FA02F3D040C2F12002914060
:1003000008431946704740EA01039B0703D009E000
:1003100008C9121F08C0042AFAD203E011F8013BF1
:1003200000F8013B521EF9D27047D2B201E000F84A
:10033000012B491EFBD270470022F6E710B5134689
:100340000A4604461946FFF7F0FF204610BD202A52
:1003500004DB203A00FA02F1002070479140C2F11C
:10036000200320FA03F3194390407047064C074DD1
:1003700006E0E06840F0010394E807009847103475
:10038000AC42F6D3FFF704FFD4230008F42300089F
:10039000FEE770472DE9F04FDFF8AC91002309F13B
:1003A000040A03250AF1040B85B04FF0010C0F2756
:1003B0000BF1040EBFE000BF0CFA03F6324075D01B
:1003C0000C7904F00304012C01D0022C1BD18468A9
:1003D00000945C0005FA04F80494009C24EA0804E4
:1003E0000094D1F80C80049C08FA04F8009C48EAB8
:1003F0000408C0F808804468B4430E79C6F30016B8
:100400009E40264346600C79E443A4070AD0C468A2
:100410004FEA430805FA08F6B4438E6806FA08F670
:100420002643C6600C7904F00304022C10D1DC08CA
:1004300000EB84040294246A5E074FEAD66807FA48
:1004400008F6B4430E6906FA08F62643029C2662B3
:1004500004684FEA430805FA08F6B4430E7906F03B
:10046000030606FA08F6264306604C6814F4403F7B
:1004700060D0364CA66946F00106A661A46923F057
:10048000030604F001040094314C34440294A4683F
:100490009E074FEA167807FA08F6B443B0F1904F7A
:1004A00005D02C4EB04204D1012612E042E00026D5
:1004B0000FE0294EB04201D102260AE0274EB04299
:1004C00001D1032605E0264EB04201D1042600E00A
:1004D000052606FA08F62643029CA660D9F80060B5
:1004E0004C46D1F8048096435FEAC83800D51643DD
:1004F0002660DAF800405646D1F8048094435FEA5B
:10050000883800D514433460DBF800405E46D1F8EB
:10051000048094435FEAC82800D514433460DEF8B1
:1005200000407646D1F8048094435FEA882800D5DD
:10053000144334605B1C0A6832FA03F47FF43CAF66
:1005400005B0BDE8F08F000000040140001002403B
:10055000000001400004004800080048000C00486A
:1005600000100048426921EA02030A4043EA0241BE
:10057000816170470AB181617047816270470000F4
:1005800001488068704700000000002090F841207A
:10059000202A24D190F84020012A20D0012280F87E
:1005A0004020242280F841200268136823F00103D0
:1005B00013600268136823F48053136002681368A1
:1005C0000B43136001680A6842F001020A602021AF
:1005D00080F84110002180F8401008467047022042
:1005E000704790F84120202A22D190F84020012A1B
:1005F0001ED0012280F84020242280F84120026889
:10060000136823F0010313600268136823F4706316
:1006100043EA0121116001680A6842F001020A60A0
:10062000202180F84110002180F8401008467047D2
:100630000220704770B5040004D094F841000025F2
:1006400010B106E0012070BD84F84050204600F053
:100650004DF8242084F841002068016821F0010150
:1006600001606068216820F070600861206881681E
:1006700021F400418160E0680128A06807D040F4BF
:10068000044021688860E068022803D006E040F456
:100690000040F6E721684FF4006048602068416838
:1006A000114A114341602068C16821F40041C160D2
:1006B000D4E904010843A16940EA01202168C86027
:1006C000D4E907010843216808602068016841F007
:1006D000010101606564202084F84100256384F8ED
:1006E0004250002070BD00000080000210B586B0AE
:1006F000044614216846FFF71FFE1249206888420D
:100700001ED1114C606940F48020606160696946C7
:1007100000F480200590C02000901220019001205C
:10072000029003200390042004900848FFF732FE53
:10073000E06940F40010E061E06900F40010059009
:1007400006B010BD005400400010024000040048F4
:1007500002488168027811448160704700000020DF
:10076000074810B5016841F010010160032000F056
:1007700087F8002000F006F800F03EF8002010BDD9
:100780000020024000B5014687B000221D2000F085
:1007900057F81D2000F046F81348C16941F00201E6
:1007A000C161C06905A900F002000690684600F02A
:1007B000AFFA00F0CDFA0D494000B0FBF1F10D4861
:1007C0000B4A491E0260416040F2E7320021C0E955
:1007D0000321816000F099FE10B1012007B000BD37
:1007E000044800F0C5FEF9E70010024040420F0047
:1007F000000400400C040020094808B5816941F05C
:1008000001018161816901F001010091C16941F03B
:100810008051C161C06900F08050009008BD0000A7
:1008200000100240002809DB00F01F020121914066
:100830004009800000F1E020C0F80011704700007E
:10084000F0B40E4B1B680C46C3F30223C3F107053B
:10085000042D00D90425191D072901D2002300E029
:10086000DB1E012606FA05F1491E214099409E40F3
:10087000761E16403143F0BC01F005B90CED00E0E6
:10088000064900F0070208684FF6FF03184040EAE7
:100890000220034A10430860704700000CED00E09E
:1008A0000000FA0570B586B0040004D094F8A902DF
:1008B000002518B107E0012006B070BD84F8A852E9
:1008C000204600F043F8032084F8A902206801F0D4
:1008D000D2F8002001260EE000EB800104EBC101FC
:1008E00081F8296001F8280FC881CD700D614D6134
:1008F000401CC0B28D6161688142EDD8002011E0DA
:1009000000EB800104EBC10181F8695181F86801B5
:1009100081F86B51C1F87851C1F87C51401CC0B2CC
:10092000C1F8805161688142EAD8142204F11001B3
:100930006846FFF7E8FC94E80F0001F093F884F8AC
:10094000245084F8A9620020B6E7000010B586B0F4
:10095000044614216846FFF7EFFC134920688842DB
:1009600020D1124C606940F40030606160696946D2
:1009700000F4003005904FF4C05000900220019028
:1009800000200290032003900E2004904FF090402E
:10099000FFF700FDE06940F40000E061E06900F469
:1009A0000000059006B010BD005C00400010024041
:1009B0002DE9F84F044600680026804DC0036ED52F
:1009C000E869C00008D4E86940F08050E861E8694F
:1009D000012600F08050009079480168C90512D4C2
:1009E0000168804641F480710160FFF7C9FD074648
:1009F00005E000BFFFF7C4FDC01B642835D8D8F858
:100A00000000C005F6D5286A10F4407053D0A188C4
:100A100001F4407181424ED0286A4FF4803191FA3E
:100A2000A1F2B2FA82F29700664A4FF00108174429
:100A300020F44070C7F8008491FAA1F1B1FA81F175
:100A400002EB81010023C1F800342862C00732D0D4
:100A5000FFF796FD074641F2883A4FF0020907E09A
:100A6000FFF78EFDC11B514502D90320BDE8F88F69
:100A700099FAA9F0B0FA80F040F040024946B8EB8C
:100A8000521F01D12A680CE091FAA1F2B2FA82F267
:100A900042F04002B1EB521F02D12A6A01E015E098
:100AA0006A6A99FAA9F1B1FA81F101F01F0108FA15
:100AB00001F00242D4D0286A616820F440700843F3
:100AC00028621EB1E86920F08050E8612078C007F4
:100AD00005D0286BA16820F0030008432863207824
:100AE000800705D5286BE16820F44030084328636F
:100AF0002078400705D5286B216920F44020084361
:100B000028632078800605D5286BE16920F0100065
:100B1000084328632068800305D56868A16B20F42A
:100B20008000084368602078400605D5286B216A5C
:100B300020F02000084328632078000705D5286BA3
:100B4000616920F44010084328632078C00605D569
:100B5000286BA16920F440000843286320888005A1
:100B600005D56868E16A20F40000084368602078D1
:100B7000000605D5E86A616A20F4F8700843E86267
:100B80002088C00505D5E86AA16A20F4785008439A
:100B9000E8622088C00405D5286B216B20F48070A2
:100BA000084328632088800405D5286B616B20F4F6
:100BB000007008432863002058E70000001002403E
:100BC00000700040000042422DE9F0470F4605004A
:100BD00069D04A4E306800F00700B84209D2306848
:100BE00020F0070038433060306800F00700B8425A
:100BF00059D12878424C800705D56068A96820F053
:100C0000F000084360602878C0073DD06968012083
:100C100001290DD0022923D05FF0020393FAA3F239
:100C2000B2FA82F242F02002520904D0226803E0B4
:100C30004FF40033F2E7626A93FAA3F3B3FA83F353
:100C400003F01F03984002422DD0606820F003009B
:100C500008436060FFF794FC804641F288390CE05D
:100C60004FF00073DAE700BFFFF78AFCA0EB080142
:100C7000494502D90320BDE8F0876068696800F043
:100C80000C00B0EB810FEFD1306800F00700B842E4
:100C90000BD9306820F0070038433060306800F02E
:100CA0000700B84201D00120E5E72878400705D5C4
:100CB0006068E96820F4E060084360602878000715
:100CC00006D56068296920F4605040EAC100606080
:100CD00000F056F86168F02292FAA2F201F0F001F9
:100CE000B2FA82F2D140074A515CC8400649086016
:100CF00006480068FFF746FD0020BCE700200240E0
:100D000000100240BC2300080C000020040000205A
:100D10000F2202600C4A536803F0030343605368D8
:100D200003F0F0038360536803F4E063C360526828
:100D30004FF4E06303EAD20202610448006800F065
:100D400007000860704700000010024000200240C9
:100D500008480949006849684FF4E06292FAA2F233
:100D600001F4E061B2FA82F2D140044A515CC84019
:100D7000704700000C00002000100240CC23000847
:100D8000164A10B55168164801F00C03042B20D008
:100D9000082B1ED14FF4701494FAA4F401F47013CC
:100DA000B4FA84F4E3400F4CD26AE45C0F2393FA64
:100DB000A3F302F00F02B3FA83F3DA40094B1033C6
:100DC000C9039A5C06D500231946FFF75BFAA0FB1E
:100DD000040110BD0448A4FB000110BD0010024036
:100DE00000127A009C23000800093D002DE9F84F0D
:100DF000050071D02878FC4EC0074FF0010425D0C3
:100E000070686704C0F38100012807D07068C0F3E0
:100E1000810002281BD17068C00318D597FAA7F08B
:100E2000B0FA80F040F02000400901D0306800E0C6
:100E3000706A97FAA7F1B1FA81F101F01F0104FA83
:100E400001F1084265D068680028D2D061E0686886
:100E5000B0F5803F0BD010B1B0F5A02F17D030689F
:100E600020F480303060306820F4802002E0306868
:100E700040F480303060F06AA96820F00F00084329
:100E8000F062686820B3FFF77BFB80460AE03068B9
:100E900040F480203060EAE7FFF772FBA0EB080027
:100EA000642871D897FAA7F0B0FA80F040F02000DB
:100EB000400901D0306800E0706A97FAA7F1B1FAF2
:100EC00081F101F01F0104FA01F10842E4D020E0B1
:100ED000FFF756FB804607E0C2E000BFFFF750FB7C
:100EE000A0EB08006428DCD897FAA7F0B0FA80F0ED
:100EF00040F02000400901D0306800E0706A97FAA5
:100F0000A7F1B1FA81F101F01F0104FA01F10842E1
:100F1000E4D12878DFF8D48280074FF0000A4FF040
:100F2000020730D570684FF0F80B10F00C0F07D0A7
:100F30007068C0F38100022827D17068C00324D4F0
:100F400097FAA7F0B0FA80F040F02000400901D0F5
:100F5000306800E0706A97FAA7F1B1FA81F101F008
:100F60001F0104FA01F1084202D02869012877D153
:100F700030689BFAABF220F0F8016869B2FA82F2AD
:100F80009040014331605AE064E1286988B394FAE3
:100F9000A4F0B0FA80F048F82040FFF7F1FA81465B
:100FA00006E000BFFFF7ECFAA0EB090002289AD890
:100FB00097FAA7F0B0FA80F040F02000400901D085
:100FC000306800E0706A97FAA7F1B1FA81F101F098
:100FD0001F0104FA01F10842E4D030689BFAABF239
:100FE0006969B2FA82F220F0F8009140084330605B
:100FF00025E0FFE794FAA4F0B0FA80F048F820A0CA
:10100000FFF7BEFA814605E0FFF7BAFAA0EB090048
:101010000228CCD897FAA7F0B0FA80F040F0200070
:10102000400901D0306800E0706A97FAA7F1B1FA80
:1010300081F101F01F0104FA01F10842E4D128789E
:1010400000076CD5A869A8B394FAA4F0B0FA80F0B0
:1010500008EB8000C0F88044FFF792FA814607E071
:10106000A4E100BFFFF78CFAA0EB090002289ED88C
:1010700097FAA7F0B0FA80F040F06000B4EB501F90
:1010800001D130680BE097FAA7F0B0FA80F040F099
:101090006000B7EB501F01D1306A00E0706A97FA28
:1010A000A7F1B1FA81F101F01F0104FA01F2104237
:1010B000D8D034E0FFE794FAA4F1B1FA81F108EB5B
:1010C0008101C1F880A4FFF75BFA814606E000BF0A
:1010D000FFF756FAA0EB090002289AD897FAA7F072
:1010E000B0FA80F040F06000B4EB501F01D13068DE
:1010F0000BE097FAA7F0B0FA80F040F06000B7EB91
:10110000501F01D1306A00E0706A97FAA7F1B1FA76
:1011100081F101F01F0104FA01F21042D8D12878C0
:10112000400768D5F0694FF00009C00009D4F069A4
:1011300040F08050F061F0694FF0010900F08050FC
:1011400000902B480168C90512D4016841F48071F0
:101150000160FFF715FA834606E000BFFFF710FABB
:10116000A0EB0B00642875D821480068C005F5D5B0
:10117000E86801280AD008B1052811D0306A20F0AB
:1011800001003062306A20F0040002E0306A40F072
:1011900001003062E86868B3FFF7F2F983460DE0BA
:1011A000306A40F004003062F0E700BFFFF7E8F972
:1011B000A0EB0B0141F2883081424BD897FAA7F09F
:1011C000B0FA80F040F04000B4EB501F01D130681D
:1011D00013E097FAA7F0B0FA80F040F04000B7EBC8
:1011E000501F09D1306A08E000100240000042425E
:1011F000007000400CE040E0706A97FAA7F1B1FA85
:1012000081F101F01F0104FA01F21042CED02DE06D
:10121000FFF7B6F9834607E0FFF7B2F9A0EB0B0141
:1012200041F28830814215D897FAA7F0B0FA80F0E1
:1012300040F04000B4EB501F01D130680CE097FA49
:10124000A7F0B0FA80F040F04000B7EB501F02D199
:10125000306A01E083E0706A97FAA7F1B1FA81F190
:1012600001F01F0104FA01F21042D5D1B9F1000FCB
:1012700003D0F06920F08050F061E86980B37168B4
:10128000C1F38101022977D04FF080714F0002280D
:10129000504609D091FAA1F1B1FA81F148F8210044
:1012A000FFF76EF905465DE0894691FAA1F1B1FAC2
:1012B00081F1C24648F82100FFF762F9804605E057
:1012C000FFF75EF9A0EB0800022848D897FAA7F0CC
:1012D000B0FA80F040F02000400902D0306801E010
:1012E00066E0706A97FAA7F1B1FA81F101F01F0187
:1012F00004FA01F10842E3D1D5E908100843716806
:1013000021F474110843706099FAA9F0B0FA80F0E2
:101310004AF82040FFF734F9054604E0FFF730F9BA
:10132000401B02281BD897FAA7F0B0FA80F040F0D3
:101330002000400901D0306800E0706A97FAA7F1F8
:10134000B1FA81F101F01F0104FA01F10842E5D080
:101350002EE000BFFFF714F9401B022802D903203A
:10136000BDE8F88F97FAA7F0B0FA80F040F02000BF
:10137000400902D0306801E00BE0706A97FAA7F1EB
:10138000B1FA81F101F01F0104FA01F10842E1D143
:101390000EE00128E4D070682A6A00F4803191429E
:1013A00004D1696A00F47010884201D00120D7E7A7
:1013B0000020D5E770B5040009D0606A002540B16F
:1013C00025616561A56294F85D0040B10CE00120E3
:1013D00070BD6068B0F5827FF4D0E561F2E784F813
:1013E0005C50204600F05CF8022084F85D00206824
:1013F000016821F040010160E1684FF4E062914230
:1014000001D9002001E04FF48050B1F5706F02D097
:10141000914200D0A562A188228901F4827102F470
:1014200004421143227C02F002021143227D02F0A9
:1014300001021143228B02F400721143227F02F059
:101440003802114394F8202002F080021143228DCB
:1014500002F40052114322681160A169042202EAD9
:10146000114194F8242000F4805002F0100211433E
:1014700094F8342002F008021143A28902F4706249
:1014800011430143206841602068C16921F4006173
:10149000C1612566012084F85D00002070BD000058
:1014A00010B586B0044614216846FEF745FF13497F
:1014B000206888421FD11248816941F480518161BE
:1014C000816901F480510591416941F40031416124
:1014D0004069694600F400300590E0200090022049
:1014E00001900020029003200390052004904FF00B
:1014F0009040FEF74FFF06B010BD000000300140E5
:101500000010024070477047704710B5040003D0C8
:1015100094F83D0010B107E0012010BD002084F8D0
:101520003C00204600F022F8022084F83D00211DF6
:10153000206800F03FFA012084F8480084F83E005B
:1015400084F83F0084F8400084F8410084F84200A9
:1015500084F8430084F8440084F8450084F8460089
:1015600084F8470084F83D00002010BD704700005B
:1015700090F83D10012901D001207047022180F828
:101580003D100168CA6842F00102CA600068104953
:1015900088420ED0B0F1804F0BD00E49884208D05F
:1015A0000D49884205D00D49884202D00C49884235
:1015B00007D181680B4A1140062906D0B1F5803F5A
:1015C00003D0016841F00101016000207047000074
:1015D000002C01400004004000080040003401409D
:1015E0000040014007000100704770B504460068E4
:1015F00001694FF00005C943890715D4C168C94383
:10160000890711D4E91E01610120207720688069D3
:101610008007204602D0FFF7E7FF04E000F0A7F8BC
:10162000204600F0A5F8257720680169C9434907DD
:1016300017D4C168C943490713D46FF0040101618D
:10164000022020772068806910F4407F204602D075
:10165000FFF7CAFF04E000F08AF8204600F088F89F
:10166000257720680169C943090716D4C168C943B1
:10167000090712D46FF00801016104202077206867
:10168000C0698007204602D0FFF7AEFF04E000F0FB
:101690006EF8204600F06CF8257720680169C94390
:1016A000C90617D4C168C943C90613D46FF0100125
:1016B0000161082020772068C06910F4407F20462F
:1016C00002D0FFF791FF04E000F051F8204600F04F
:1016D0004FF8257720680169C943C90708D1C16857
:1016E000C943C90704D1891E0161204600F042F8B0
:1016F00020680169C943090609D4C168C9430906BC
:1017000005D46FF0800101612046FFF7FCFE2068E0
:101710000169C943C90509D4C168C943090605D48B
:101720006FF4807101612046FFF7ECFE20680169CB
:10173000C943490609D4C168C943490605D46FF0B5
:1017400040010161204600F01FF820680169C9438B
:1017500089060BD4C168C943890607D46FF02001FC
:1017600001612046BDE87040FFF7CEBE70BD7047F6
:101770007047000000680349884201D1FEF7E8BFC6
:1017800070470000000400407047FEE770B586B067
:1017900014216846FEF7D0FD2748416941F4001145
:1017A0004161416901F400110591416941F4002151
:1017B0004161416901F400210591416941F48001D1
:1017C0004161416901F480010591416941F40031B1
:1017D0004161416901F400310591416941F4802181
:1017E00041614069154E00F480204FF60875059060
:1017F000002229463046FEF7BDFE372000904FF408
:1018000090100024CDE9010469463046FEF7C2FD80
:1018100000950125CDE90154694630460394FEF751
:10182000B9FDCDE9005469464FF090400294FEF7AF
:10183000B1FD06B070BD000000100240001000486D
:10184000124810B510490160114941600021012280
:10185000C0E90212016141618161C1610162FEF76B
:10186000E9FE08B172B6FEE700210848FEF78EFED9
:1018700008B172B6FEE700210448FEF7B2FE002868
:1018800001D072B6FEE710BD005400407000002089
:101890000E090020114810B50F4901604FF4827104
:1018A000416000214FF44072C0E902124FF400720F
:1018B0000161C0E905120822C0E90721072341623E
:1018C000C0E90A13C0E90C12FFF774FD002801D02B
:1018D00072B6FEE710BD000000300140BC000020E1
:1018E000FEE7FEE710B5BF2080F31188BFF34F8FEE
:1018F000BFF36F8F00F04AFC18B104494FF08050DD
:101900000860002080F3118810BD000004ED00E0A5
:1019100030B59FB028216846FEF70EFD142119A8A6
:10192000FEF70AFD3C210AA8FEF706FD0320009001
:101930004FF4A0200024CDE90104012004901020E0
:10194000059002250003CDE907504FF4E0100990FF
:101950006846FFF74BFA08B172B6FEE70F20CDE9F3
:1019600019054FF48060CDE91B40022119A81D9490
:10197000FFF72AF908B172B6FEE706480A901194FB
:1019800018940AA8FFF714F8002801D072B6FEE7F1
:101990001FB030BD200002000248016841F4700110
:1019A0000160704788ED00E00148FFF71EBE0000AF
:1019B0000C0400202DE9F0430268234B234D244EF4
:1019C000244C4FF08049984207D0484505D0A842A2
:1019D00003D0B04201D0A04203D122F070074A6880
:1019E0003A431D4FDFF874C0DFF8748098420DD081
:1019F00048450BD0A84209D0B04207D0A04205D03C
:101A0000B84203D0604501D0404503D122F440756F
:101A1000CA682A434D6922F080022A4302608A681C
:101A2000C2620A688262984207D0A04205D0B842DA
:101A300003D0604501D0404501D10969016301210E
:101A40004161BDE8F0830000002C0140000400402B
:101A500000080040003401400040014000440140C3
:101A600000480140012120F8401F002101808180B1
:101A700001820846704730F8401F21F43F41018041
:101A800000207047FEE70907090E002804DB00F17B
:101A9000E02080F80014704700F00F0000F1E02013
:101AA00080F8141D704702E008C8121F08C1002A00
:101AB000FAD170477047002001E001C1121F002ACF
:101AC000FBD170471CB5FEF74BFEFFF721FFFFF778
:101AD0005DFEFFF7B5FEFFF7DDFE1248104900245A
:101AE000016008214160022181608461046201611A
:101AF000FEF7D8FE08B172B6FEE700940023C822B4
:101B000009A10A48019400F015FB00940023C822A3
:101B100007A10848019400F00DFB00F093FAFEE7DE
:101B2000005C0040200100204F4E4500D91F0008F6
:101B300054574F00F91F00082DE9F0411A4C0F4689
:101B40000546A6682068001D00F0C6F9681C15D17E
:101B5000A7B1164922684868906023688268DA60F5
:101B600022688368121D5A602268121D82602068F4
:101B700041610868401C0860BDE8F0812068354478
:101B8000B5424560216805D2A06BBDE8F041091D52
:101B900000F0C3B9606B091D00F0BFF9606A8542AF
:101BA000EAD26562E8E7000014000020F804002093
:101BB0002DE9F041054600F0C9F9334C6068401C3E
:101BC00060602068314F10B1206920B329E02560A2
:101BD0006068012825D1002606EB860007EB80000F
:101BE00000F08DF9761C052EF6D32848643000F0FD
:101BF00086F92648783000F082F924488C3000F0CD
:101C00007EF92248A03000F07AF920486430606301
:101C10001430A06305E02068E96AC06A884200D8F1
:101C20002560206A401C2062E86AE168884200D989
:101C3000E06000EB800007EB80004068A8608168EE
:101C4000E9608268291D51608160E86A00EB8000CC
:101C500007EB8001696157F82010491C47F82010F4
:101C600000F082F9206900280CD02068E96AC06A77
:101C7000884207D206494FF080500860BFF34F8F6B
:101C8000BFF36F8FBDE8F0811400002058040020DE
:101C900004ED00E010484FF48841420706D0C01D13
:101CA0000D4920F00700411AC1F588410B4A002375
:101CB0000144C2E900030839183A21F00701116014
:101CC0004B600B600B1AC0E9001393604FF00040AB
:101CD00053605061704700000C0500206800002030
:101CE0000648074A4FF080510368012BFCD9116068
:101CF000BFF34F8FBFF36F8FF6E70000580400204B
:101D000004ED00E02DE9F0479A46DDE909748146CB
:101D10006FF00303206B03EB8202089E104420F057
:101D20000708002561B1002023180A5C83F83420DD
:101D30000A5C12B1401C1028F6D384F8435001E02D
:101D400084F83450052E00D30426E662C4E91165F8
:101D5000201D00F0DFF804F1180000F0DBF824612A
:101D6000C6F105006462A061E56484F850505246F3
:101D70004946404600F09AF82060002F00D03C60B1
:101D8000BDE8F08730B5114900E011460A6882428B
:101D9000FBD34B685C18844203D140681844486008
:101DA000084643681C18944209D1084C183C246822
:101DB000A24209D052681A4442600A68126802605E
:101DC000814200D0086030BD0460F9E7680000205F
:101DD0000548416B096821B1416BC96809684162D6
:101DE00070474FF0FF31FAE714000020BF2080F366
:101DF0001188BFF34F8FBFF36F8FFEE72DE9F041DE
:101E00000546002700F046F9274E306808B9FFF76D
:101E100041FF7069054241D1F5B305F10804AC42B8
:101E20003CD9600707D004F00700C0F10800204447
:101E3000A04233D904467CB3706884422ED81A4835
:101E4000183001460D6801E028460D466968A14238
:101E500002D229680029F7D131688D421ED0076867
:101E60002968016068680837011B102904D92819FE
:101E700041606C60FFF786FF69687068401A7060A7
:101E8000B268904200D2B060706901430020C5E999
:101E90000001F068401C00E000E0F06000F0F4F9A0
:101EA0003846BDE8F08100005000002010B5031F47
:101EB0004FF080741C601B1F21F001011960191F75
:101EC000044B0B6014390A60091F6FF0020244389A
:101ED0000A6010BDED1D0008D0E9013201699A6069
:101EE000D0E901235A604A68824201D182684A607F
:101EF000002202610868401E08600868704700F10F
:101F000008014FF0FF32C0E90112C16001610021F8
:101F10000160704700210161704730B50B685A1CA1
:101F200002D000F1080202E0026904E0224654688F
:101F300025689D42FAD953684B6099608A60516068
:101F400008610168491C016030BD0000BF2080F3BA
:101F50001188BFF34F8FBFF36F8F02480168491C90
:101F6000016070471000002003490868401E0860A7
:101F700001D180F3118870471000002070B500284F
:101F80001BD00E4DA0F1080461686869014214D0AD
:101F90002268002A11D18143616000F07BF86068FB
:101FA0006968084468602046FFF7ECFE2869401C19
:101FB0002861BDE8704000F067B970BD5000002096
:101FC0004FF0E02000210161816102494161072158
:101FD000016170473F190100064D4FF480744FF4C2
:101FE000FA6621462846FEF7BDFA304600F012F8A0
:101FF000F7E7000000100048054D4FF4004421466B
:102000002846FEF7AFFA642000F004F8F7E7000076
:102010000010004810B5020009D000F03BF8002184
:102020001046FFF789FD00F02FF9002807D1044979
:102030004FF080500860BFF34F8FBFF36F8F10BD1C
:1020400004ED00E07CB50F480025CDE900502B469B
:1020500080220DA10E4800F06DF80A4C283C0128A2
:102060000ED1BF2080F31188BFF34F8FBFF36F8F66
:102070004FF0FF30606201202061A56000F03AF867
:10208000E06A7CBD3C00002049444C450000000053
:10209000E11C00080248016B491C01637047000005
:1020A00014000020114810B5016B11B101218161AC
:1020B00010BD00218161C2680D4900E0521E02EB93
:1020C000820351F82330002BF8D002EB820301EB9E
:1020D000830101F108044B685B684B60A34201D1A6
:1020E0005B684B60D9680160C26010BD14000020BD
:1020F000580400200C4810B5016841F47F010160CC
:10210000016841F07F410160FFF75AFF0749002055
:102110000860FEF769F80648016841F04041016037
:10212000FEF74EF8002010BD20ED00E0100000206A
:1021300034EF00E02DE9FF5F8346DDE90E87994625
:1021400016468A469000FFF759FE05001AD0542023
:10215000FFF754FE040012D025630021CDE90241AF
:10216000CDE900874B46324651465846FFF7CAFD37
:102170002046FFF71DFD012004B0BDE8F09F284672
:10218000FFF7FCFE4FF0FF30F6E700002DE9F041CD
:102190003B4C0026206B28B16069401C60613046D2
:1021A000BDE8F081A5686D1CA56008D1606BA16BCE
:1021B0006163A063E069401CE061FFF709FE606AAB
:1021C00085420BD34FF0000C606B006858B1606B18
:1021D000C068C1684868854208D26062A06900286A
:1021E000DDD00126DBE74FF0FF30F6E7D1E9023220
:1021F00048699A60D1E902235A6043680A1D9342F4
:1022000001D1CB684360C1F814C003685B1E036052
:10221000886A88B1D1E907379F60D1E907377B60C9
:10222000476801F118039F4201D10B6A4360C1F86E
:1022300028C003685B1E0360C86AE368984200D93F
:10224000E060104B00EB800003EB8000406888608A
:102250008768CF6087687A608260C86A00EB800018
:1022600003EB80024A6153F82020521C43F82020DF
:10227000C86A2168C96A8842A6D30126A4E700007B
:1022800014000020580400202DE9F04100242746C6
:10229000FFF75CFE3E4D286B401E2863286B00282C
:1022A00070D168683B4A00264FF00108E8BB69E03E
:1022B000D068C468D4E90731A06A9960D4E90713EB
:1022C0005960436804F118018B4201D1216A4160D1
:1022D000A6620168491E0160D4E902316069996013
:1022E000D4E9021359604368211D8B4201D1E36890
:1022F0004360666103685B1E0360E06AEB689842B6
:1023000000D9E860234B00EB80008C3B03EB80009E
:102310004068A060D0F808C0C4F80CC0D0F808C06D
:10232000CCF804108160E06A00E010E000EB80006F
:1023300003EB8001616153F82010491C43F8201021
:10234000E06A2968C96A884201D3C5F81880106814
:102350000028ADD10CB1FFF73BFD6C6944B100BF63
:10236000FFF714FF08B1C5F81880641EF8D16E613C
:10237000A86938B10849012738070860BFF34F8FB3
:10238000BFF36F8FFFF7F0FD3846BDE8F081000026
:1023900014000020E404002004ED00E00203040522
:1023A000060708090A0B0C0D0E0F1010010203049A
:1023B00005060708090A0B0C0D0E0F10000000009F
:1023C00000000000010203040607080900000000E5
:1023D00001020304F4230008000000207000000044
:1023E000A61A00086424000870000020A050000015
:1023F000B61A0008010000001000000000000000F4
:1024000000127A00AAAAAAAA000000000000000098
:1024100000000000000000000000000000000000BC
:1024200000000000000000000000000000000000AC
:102430000000000004000000000000000000000098
:10244000000000000000000000000000000000008C
:10245000000000000000000000000000000000007C
:042460000000000078
:040000050800018965
:00000001FF
