:020000040800F2
:10000000A01B002061020008EB18000893170008ED
:10001000E9180008910300088D1A0008000000008C
:10002000000000000000000000000000A101000826
:100030009303000800000000FD010008ED1800080F
:100040007B0200087B0200087B0200087B0200089C
:100050007B0200087B0200087B0200087B0200088C
:100060007B0200087B0200087B0200087B0200087C
:100070007B0200087B0200087B0200087B0200086C
:100080007B0200087B0200087B0200087B0200085C
:100090007B0200087B0200087B0200087B0200084C
:1000A0007B0200087B0200087B0200087B0200083C
:1000B0007B020008B11900087B0200087B020008DF
:1000C0007B0200087B0200087B0200087B0200081C
:1000D0007B0200087B0200087B0200087B0200080C
:1000E0007B0200087B0200087B0200087B020008FC
:1000F0007B0200087B0200087B0200087B020008EC
:100100000000000000000000000000007B0200086A
:100110007B0200087B0200087B0200087B020008CB
:100120007B0200087B0200087B0200087B020008BB
:100130007B0200087B0200080000000000000000B5
:100140007B0200087B0200087B0200080000000020
:10015000000000000000000000000000000000009F
:1001600000000000000000007B0200087B02000885
:100170007B020008000000000000000000000000FA
:10018000000000007B020008DFF810D000F0EEF85D
:1001900000480047CD1A0008AFF30080A01B0020E4
:1001A0002C4B19680868B0E8F04F80F30988BFF35A
:1001B0006F8F4FF0000080F311887047000000003F
:1001C00008480068006880F308884FF0000080F35A
:1001D000148862B661B6BFF34F8FBFF36F8F00DF35
:1001E00000BF00BF08ED00E0DFF80C00016841F43B
:1001F00070010160704700BF88ED00E0EFF30980F7
:10020000BFF36F8F134B1A681EF0100F08BF20ED5D
:10021000108A20E9F04F106009B44FF0500080F3CD
:100220001188BFF34F8FBFF36F8F01F0F5FF4FF0D1
:10023000000080F3118809BC19680868B0E8F04F25
:100240001EF0100F08BFB0EC108A80F30988BFF3CE
:100250006F8F704710000020EFF30580704700009B
:100260000648804706480047FEE7FEE7FEE7FEE750
:10027000FEE7FEE7FEE7FEE7FEE7FEE7A11900085E
:10028000890100082DE9F05F0546002092469B4653
:1002900088460646814640241BE02846414647469C
:1002A000224600F020F853465A46C01A914110D316
:1002B00011461846224600F04AF82D1A67EB01084D
:1002C0004F4622460120002100F041F817EB0009BB
:1002D0004E41201EA4F10104DFDC484631462A4687
:1002E0004346BDE8F09F202A04DB203A21FA02F0C1
:1002F0000021704721FA02F3D040C2F12002914060
:1003000008431946704740EA01039B0703D009E000
:1003100008C9121F08C0042AFAD203E011F8013BF1
:1003200000F8013B521EF9D27047D2B201E000F84A
:10033000012B491EFBD270470022F6E710B5134689
:100340000A4604461946FFF7F0FF204610BD202A52
:1003500004DB203A00FA02F1002070479140C2F11C
:10036000200320FA03F3194390407047064C074DD1
:1003700006E0E06840F0010394E807009847103475
:10038000AC42F6D3FFF704FFDC250008FC2500088B
:10039000FEE770472DE9F04FDFF8AC91002309F13B
:1003A000040A03250AF1040B85B04FF0010C0F2756
:1003B0000BF1040EBFE000BF0CFA03F6324075D01B
:1003C0000C7904F00304012C01D0022C1BD18468A9
:1003D00000945C0005FA04F80494009C24EA0804E4
:1003E0000094D1F80C80049C08FA04F8009C48EAB8
:1003F0000408C0F808804468B4430E79C6F30016B8
:100400009E40264346600C79E443A4070AD0C468A2
:100410004FEA430805FA08F6B4438E6806FA08F670
:100420002643C6600C7904F00304022C10D1DC08CA
:1004300000EB84040294246A5E074FEAD66807FA48
:1004400008F6B4430E6906FA08F62643029C2662B3
:1004500004684FEA430805FA08F6B4430E7906F03B
:10046000030606FA08F6264306604C6814F4403F7B
:1004700060D0364CA66946F00106A661A46923F057
:10048000030604F001040094314C34440294A4683F
:100490009E074FEA167807FA08F6B443B0F1904F7A
:1004A00005D02C4EB04204D1012612E042E00026D5
:1004B0000FE0294EB04201D102260AE0274EB04299
:1004C00001D1032605E0264EB04201D1042600E00A
:1004D000052606FA08F62643029CA660D9F80060B5
:1004E0004C46D1F8048096435FEAC83800D51643DD
:1004F0002660DAF800405646D1F8048094435FEA5B
:10050000883800D514433460DBF800405E46D1F8EB
:10051000048094435FEAC82800D514433460DEF8B1
:1005200000407646D1F8048094435FEA882800D5DD
:10053000144334605B1C0A6832FA03F47FF43CAF66
:1005400005B0BDE8F08F000000040140001002403B
:10055000000001400004004800080048000C00486A
:1005600000100048426921EA02030A4043EA0241BE
:10057000816170470AB181617047816270470000F4
:1005800001488068704700000000002090F841207A
:10059000202A24D190F84020012A20D0012280F87E
:1005A0004020242280F841200268136823F00103D0
:1005B00013600268136823F48053136002681368A1
:1005C0000B43136001680A6842F001020A602021AF
:1005D00080F84110002180F8401008467047022042
:1005E000704790F84120202A22D190F84020012A1B
:1005F0001ED0012280F84020242280F84120026889
:10060000136823F0010313600268136823F4706316
:1006100043EA0121116001680A6842F001020A60A0
:10062000202180F84110002180F8401008467047D2
:100630000220704770B5040004D094F841000025F2
:1006400010B106E0012070BD84F84050204600F053
:100650004DF8242084F841002068016821F0010150
:1006600001606068216820F070600861206881681E
:1006700021F400418160E0680128A06807D040F4BF
:10068000044021688860E068022803D006E040F456
:100690000040F6E721684FF4006048602068416838
:1006A000114A114341602068C16821F40041C160D2
:1006B000D4E904010843A16940EA01202168C86027
:1006C000D4E907010843216808602068016841F007
:1006D000010101606564202084F84100256384F8ED
:1006E0004250002070BD00000080000210B586B0AE
:1006F000044614216846FFF71FFE1249206888420D
:100700001ED1114C606940F48020606160696946C7
:1007100000F480200590C02000901220019001205C
:10072000029003200390042004900848FFF732FE53
:10073000E06940F40010E061E06900F40010059009
:1007400006B010BD005400400010024000040048F4
:1007500002488168027811448160704700000020DF
:10076000074810B5016841F010010160032000F056
:100770008BF8002000F006F800F03EF8002010BDD5
:100780000020024000B5014687B000221D2000F085
:100790005BF81D2000F04AF81348C16941F00201DE
:1007A000C161C06905A900F002000690684600F02A
:1007B000B3FA00F0D1FA0D494000B0FBF1F10D4859
:1007C0000B4A491E0260416040F2E7320021C0E955
:1007D0000321816000F09DFE10B1012007B000BD33
:1007E000044800F0C9FEF9E70010024040420F0043
:1007F00000040040600600200B4882B0816941F08F
:1008000001018161816901F001010091C16941F03B
:100810008051C161C069002200F0805000900F211A
:10082000901E02B000F010B800100240002809DB52
:1008300000F01F02012191404009800000F1E020FA
:10084000C0F8001170470000F0B40E4B1B680C4656
:10085000C3F30223C3F10705042D00D90425191D94
:10086000072901D2002300E0DB1E012606FA05F16C
:10087000491E214099409E40761E16403143F0BCEF
:1008800001F005B90CED00E0064900F00702086828
:100890004FF6FF03184040EA0220034A1043086065
:1008A000704700000CED00E00000FA0570B586B05E
:1008B000040004D094F8A902002518B107E0012033
:1008C00006B070BD84F8A852204600F043F803201B
:1008D00084F8A902206801F0D2F8002001260EE079
:1008E00000EB800104EBC10181F8296001F8280FB9
:1008F000C881CD700D614D61401CC0B28D616168D1
:100900008142EDD8002011E000EB800104EBC10131
:1009100081F8695181F8680181F86B51C1F878510B
:10092000C1F87C51401CC0B2C1F88051616881425D
:10093000EAD8142204F110016846FFF7E4FC94E8B9
:100940000F0001F093F884F8245084F8A962002085
:10095000B6E7000010B586B0044614216846FFF7DC
:10096000EBFC13492068884220D1124C606940F4A6
:10097000003060616069694600F4003005904FF412
:10098000C0500090022001900020029003200390AC
:100990000E2004904FF09040FFF7FCFCE06940F41B
:1009A0000000E061E06900F40000059006B010BDB1
:1009B000005C0040001002402DE9F84F044600683A
:1009C0000026804DC0036ED5E869C00008D4E869F0
:1009D00040F08050E861E869012600F08050009006
:1009E00079480168C90512D40168804641F48071D4
:1009F0000160FFF7C5FD074605E000BFFFF7C0FD3A
:100A0000C01B642835D8D8F80000C005F6D5286A80
:100A100010F4407053D0A18801F4407181424ED04F
:100A2000286A4FF4803191FAA1F2B2FA82F297006B
:100A3000664A4FF00108174420F44070C7F800845C
:100A400091FAA1F1B1FA81F102EB81010023C1F821
:100A500000342862C00732D0FFF792FD074641F20A
:100A6000883A4FF0020907E0FFF78AFDC11B5145A4
:100A700002D90320BDE8F88F99FAA9F0B0FA80F006
:100A800040F040024946B8EB521F01D12A680CE001
:100A900091FAA1F2B2FA82F242F04002B1EB521F97
:100AA00002D12A6A01E015E06A6A99FAA9F1B1FA5D
:100AB00081F101F01F0108FA01F00242D4D0286A46
:100AC000616820F44070084328621EB1E86920F094
:100AD0008050E8612078C00705D0286BA16820F01D
:100AE0000300084328632078800705D5286BE16858
:100AF00020F44030084328632078400705D5286B50
:100B0000216920F44020084328632078800605D519
:100B1000286BE16920F010000843286320688003F7
:100B200005D56868A16B20F48000084368602078D0
:100B3000400605D5286B216A20F020000843286371
:100B40002078000705D5286B616920F44010084320
:100B500028632078C00605D5286BA16920F44000E1
:100B6000084328632088800505D56868E16A20F479
:100B70000000084368602078000605D5E86A616ACD
:100B800020F4F8700843E8622088C00505D5E86ABB
:100B9000A16A20F478500843E8622088C00405D593
:100BA000286B216B20F48070084328632088800420
:100BB00005D5286B616B20F4007008432863002082
:100BC00058E7000000100240007000400000424260
:100BD0002DE9F0470F46050069D04A4E306800F015
:100BE0000700B84209D2306820F00700384330606F
:100BF000306800F00700B84259D12878424C80078D
:100C000005D56068A96820F0F00008436060287886
:100C1000C0073DD06968012001290DD0022923D0E9
:100C20005FF0020393FAA3F2B2FA82F242F02002DA
:100C3000520904D0226803E04FF40033F2E7626AFD
:100C400093FAA3F3B3FA83F303F01F03984002422D
:100C50002DD0606820F0030008436060FFF790FC2F
:100C6000804641F288390CE04FF00073DAE700BFAC
:100C7000FFF786FCA0EB0801494502D90320BDE837
:100C8000F0876068696800F00C00B0EB810FEFD16D
:100C9000306800F00700B8420BD9306820F0070038
:100CA00038433060306800F00700B84201D00120BE
:100CB000E5E72878400705D56068E96820F4E0603A
:100CC000084360602878000706D56068296920F429
:100CD000605040EAC100606000F056F86168F022A0
:100CE00092FAA2F201F0F001B2FA82F2D140074A80
:100CF000515CC8400649086006480068FFF742FD9D
:100D00000020BCE70020024000100240C42500087B
:100D10000C000020040000200F2202600C4A5368DF
:100D200003F003034360536803F0F00383605368E8
:100D300003F4E063C36052684FF4E06303EAD20255
:100D400002610448006800F0070008607047000076
:100D50000010024000200240084809490068496824
:100D60004FF4E06292FAA2F201F4E061B2FA82F288
:100D7000D140044A515CC840704700000C0000207C
:100D800000100240D4250008164A10B551681648D4
:100D900001F00C03042B20D0082B1ED14FF470144B
:100DA00094FAA4F401F47013B4FA84F4E3400F4C01
:100DB000D26AE45C0F2393FAA3F302F00F02B3FAB2
:100DC00083F3DA40094B1033C9039A5C06D500233C
:100DD0001946FFF757FAA0FB040110BD0448A4FB15
:100DE000000110BD0010024000127A00A425000886
:100DF00000093D002DE9F84F050071D02878FC4E20
:100E0000C0074FF0010425D070686704C0F381006B
:100E1000012807D07068C0F3810002281BD17068D8
:100E2000C00318D597FAA7F0B0FA80F040F0200080
:100E3000400901D0306800E0706A97FAA7F1B1FA72
:100E400081F101F01F0104FA01F1084265D06868E0
:100E50000028D2D061E06868B0F5803F0BD010B1B7
:100E6000B0F5A02F17D0306820F4803030603068A3
:100E700020F4802002E0306840F480303060F06A76
:100E8000A96820F00F000843F062686820B3FFF7FC
:100E900077FB80460AE0306840F480203060EAE763
:100EA000FFF76EFBA0EB0800642871D897FAA7F053
:100EB000B0FA80F040F02000400901D0306800E036
:100EC000706A97FAA7F1B1FA81F101F01F0104FAF3
:100ED00001F10842E4D020E0FFF752FB804607E032
:100EE000C2E000BFFFF74CFBA0EB08006428DCD891
:100EF00097FAA7F0B0FA80F040F02000400901D046
:100F0000306800E0706A97FAA7F1B1FA81F101F058
:100F10001F0104FA01F10842E4D12878DFF8D482F5
:100F200080074FF0000A4FF0020730D570684FF08D
:100F3000F80B10F00C0F07D07068C0F38100022886
:100F400027D17068C00324D497FAA7F0B0FA80F0D4
:100F500040F02000400901D0306800E0706A97FA44
:100F6000A7F1B1FA81F101F01F0104FA01F1084281
:100F700002D02869012877D130689BFAABF220F0C3
:100F8000F8016869B2FA82F29040014331605AE098
:100F900064E1286988B394FAA4F0B0FA80F048F8C4
:100FA0002040FFF7EDFA814606E000BFFFF7E8FAC0
:100FB000A0EB090002289AD897FAA7F0B0FA80F0BF
:100FC00040F02000400901D0306800E0706A97FAD4
:100FD000A7F1B1FA81F101F01F0104FA01F1084211
:100FE000E4D030689BFAABF26969B2FA82F220F081
:100FF000F80091400843306025E0FFE794FAA4F040
:10100000B0FA80F048F820A0FFF7BAFA814605E070
:10101000FFF7B6FAA0EB09000228CCD897FAA7F0A0
:10102000B0FA80F040F02000400901D0306800E0C4
:10103000706A97FAA7F1B1FA81F101F01F0104FA81
:1010400001F10842E4D1287800076CD5A869A8B35B
:1010500094FAA4F0B0FA80F008EB8000C0F8804465
:10106000FFF78EFA814607E0A4E100BFFFF788FA98
:10107000A0EB090002289ED897FAA7F0B0FA80F0FA
:1010800040F06000B4EB501F01D130680BE097FADC
:10109000A7F0B0FA80F040F06000B7EB501F01D12C
:1010A000306A00E0706A97FAA7F1B1FA81F101F0B5
:1010B0001F0104FA01F21042D8D034E0FFE794FA9D
:1010C000A4F1B1FA81F108EB8101C1F880A4FFF726
:1010D00057FA814606E000BFFFF752FAA0EB09007D
:1010E00002289AD897FAA7F0B0FA80F040F0600092
:1010F000B4EB501F01D130680BE097FAA7F0B0FABB
:1011000080F040F06000B7EB501F01D1306A00E082
:10111000706A97FAA7F1B1FA81F101F01F0104FAA0
:1011200001F21042D8D12878400768D5F0694FF015
:101130000009C00009D4F06940F08050F061F06906
:101140004FF0010900F0805000902B480168C9055C
:1011500012D4016841F480710160FFF711FA8346EF
:1011600006E000BFFFF70CFAA0EB0B00642875D86F
:1011700021480068C005F5D5E86801280AD008B103
:10118000052811D0306A20F001003062306A20F06A
:10119000040002E0306A40F001003062E86868B3A1
:1011A000FFF7EEF983460DE0306A40F0040030624C
:1011B000F0E700BFFFF7E4F9A0EB0B0141F2883044
:1011C00081424BD897FAA7F0B0FA80F040F0400087
:1011D000B4EB501F01D1306813E097FAA7F0B0FAD2
:1011E00080F040F04000B7EB501F09D1306A08E0B2
:1011F0000010024000004242007000400CE040E05D
:10120000706A97FAA7F1B1FA81F101F01F0104FAAF
:1012100001F21042CED02DE0FFF7B2F9834607E08D
:10122000FFF7AEF9A0EB0B0141F28830814215D8EF
:1012300097FAA7F0B0FA80F040F04000B4EB501FEE
:1012400001D130680CE097FAA7F0B0FA80F040F0D6
:101250004000B7EB501F02D1306A01E083E0706AB2
:1012600097FAA7F1B1FA81F101F01F0104FA01F236
:101270001042D5D1B9F1000F03D0F06920F08050B1
:10128000F061E86980B37168C1F38101022977D008
:101290004FF080714F000228504609D091FAA1F119
:1012A000B1FA81F148F82100FFF76AF905465DE0DF
:1012B000894691FAA1F1B1FA81F1C24648F82100BC
:1012C000FFF75EF9804605E0FFF75AF9A0EB08004A
:1012D000022848D897FAA7F0B0FA80F040F0200032
:1012E000400902D0306801E066E0706A97FAA7F121
:1012F000B1FA81F101F01F0104FA01F10842E3D1D2
:10130000D5E908100843716821F47411084370602E
:1013100099FAA9F0B0FA80F04AF82040FFF730F9C6
:10132000054604E0FFF72CF9401B02281BD897FA6A
:10133000A7F0B0FA80F040F02000400901D03068FA
:1013400000E0706A97FAA7F1B1FA81F101F01F018C
:1013500004FA01F10842E5D02EE000BFFFF710F9D2
:10136000401B022802D90320BDE8F88F97FAA7F0A6
:10137000B0FA80F040F02000400902D0306801E06F
:101380000BE0706A97FAA7F1B1FA81F101F01F0141
:1013900004FA01F10842E1D10EE00128E4D07068BE
:1013A0002A6A00F48031914204D1696A00F4701015
:1013B000884201D00120D7E70020D5E770B50400AE
:1013C00009D0606A002540B125616561A56294F885
:1013D0005D0040B10CE0012070BD6068B0F5827F17
:1013E000F4D0E561F2E784F85C50204600F05CF848
:1013F000022084F85D002068016821F0400101604E
:10140000E1684FF4E062914201D9002001E04FF41D
:101410008050B1F5706F02D0914200D0A562A188D2
:10142000228901F4827102F404421143227C02F009
:1014300002021143227D02F001021143228B02F4C9
:1014400000721143227F02F03802114394F82020E9
:1014500002F080021143228D02F4005211432268EF
:101460001160A169042202EA114194F8242000F4D9
:10147000805002F01002114394F8342002F0080268
:101480001143A28902F47062114301432068416054
:101490002068C16921F40061C1612566012084F8DA
:1014A0005D00002070BD000010B586B00446142118
:1014B0006846FEF741FF1349206888421FD1124851
:1014C000816941F480518161816901F48051059104
:1014D000416941F4003141614069694600F40030DE
:1014E0000590E0200090022001900020029003204F
:1014F0000390052004904FF09040FEF74BFF06B09C
:1015000010BD0000003001400010024070477047DD
:10151000704710B5040003D094F83D0010B107E007
:10152000012010BD002084F83C00204600F022F885
:10153000022084F83D00211D206800F03FFA0120C0
:1015400084F8480084F83E0084F83F0084F84000A6
:1015500084F8410084F8420084F8430084F8440091
:1015600084F8450084F8460084F8470084F83D007C
:10157000002010BD7047000090F83D10012901D0F7
:1015800001207047022180F83D100168CA6842F0CE
:101590000102CA600068104988420ED0B0F1804F45
:1015A0000BD00E49884208D00D49884205D00D491C
:1015B000884202D00C49884207D181680B4A114009
:1015C000062906D0B1F5803F03D0016841F0010142
:1015D0000160002070470000002C01400004004022
:1015E00000080040003401400040014007000100B5
:1015F000704770B50446006801694FF00005C943A3
:10160000890715D4C168C943890711D4E91E01614E
:1016100001202077206880698007204602D0FFF7EC
:10162000E7FF04E000F0A7F8204600F0A5F82577D2
:1016300020680169C943490717D4C168C9434907EC
:1016400013D46FF0040101610220207720688069C3
:1016500010F4407F204602D0FFF7CAFF04E000F0FC
:101660008AF8204600F088F8257720680169C94388
:10167000090716D4C168C943090712D46FF00801DD
:101680000161042020772068C0698007204602D0CD
:10169000FFF7AEFF04E000F06EF8204600F06CF8B3
:1016A000257720680169C943C90617D4C168C943B1
:1016B000C90613D46FF0100101610820207720685B
:1016C000C06910F4407F204602D0FFF791FF04E08C
:1016D00000F051F8204600F04FF8257720680169A6
:1016E000C943C90708D1C168C943C90704D1891EC4
:1016F0000161204600F042F820680169C9430906EB
:1017000009D4C168C943090605D46FF0800101619D
:101710002046FFF7FCFE20680169C943C90509D4CA
:10172000C168C943090605D46FF480710161204680
:10173000FFF7ECFE20680169C943490609D4C16876
:10174000C943490605D46FF040010161204600F00D
:101750001FF820680169C94389060BD4C168C943D1
:10176000890607D46FF0200101612046BDE8704072
:10177000FFF7CEBE70BD7047704700000068034998
:10178000884201D1FEF7E4BF70470000000400402A
:101790007047FEE770B586B014216846FEF7CCFDB1
:1017A0002748416941F400114161416901F4001188
:1017B0000591416941F400214161416901F4002131
:1017C0000591416941F480014161416901F4800161
:1017D0000591416941F400314161416901F40031F1
:1017E0000591416941F4802141614069154E00F441
:1017F00080204FF608750590002229463046FEF7F6
:10180000B9FE372000904FF490100024CDE9010478
:1018100069463046FEF7BEFD00950125CDE901542D
:10182000694630460394FEF7B5FDCDE9005469469C
:101830004FF090400294FEF7ADFD06B070BD000081
:101840000010024000100048124810B51049016015
:101850001149416000210122C0E902120161416188
:101860008161C1610162FEF7E5FE08B172B6FEE773
:1018700000210848FEF78AFE08B172B6FEE7002193
:101880000448FEF7AEFE002801D072B6FEE710BD98
:1018900000540040700000200E090020114810B5CF
:1018A0000F4901604FF48271416000214FF4407292
:1018B000C0E902124FF400720161C0E9051208226A
:1018C000C0E9072107234162C0E90A13C0E90C12ED
:1018D000FFF774FD002801D072B6FEE710BD0000CE
:1018E00000300140BC000020FEE7FEE710B55020AC
:1018F00080F31188BFF34F8FBFF36F8F00F08CFD23
:1019000018B104494FF080500860002080F311881E
:1019100010BD000004ED00E030B59FB028216846FE
:10192000FEF70AFD142119A8FEF706FD3C210AA8BE
:10193000FEF702FD032000904FF4A0200024CDE923
:101940000104012004901020059002250003CDE938
:1019500007504FF4E01009906846FFF74BFA08B1C2
:1019600072B6FEE70F20CDE919054FF48060CDE98E
:101970001B40022119A81D94FFF72AF908B172B67D
:10198000FEE706480A90119418940AA8FFF714F885
:10199000002801D072B6FEE71FB030BD2000020063
:1019A0000248016841F470010160704788ED00E071
:1019B0000148FFF71EBE0000600600202DE9F0433D
:1019C0000268234B234D244E244C4FF0804998420B
:1019D00007D0484505D0A84203D0B04201D0A0426C
:1019E00003D122F070074A683A431D4FDFF874C0F4
:1019F000DFF8748098420DD048450BD0A84209D03A
:101A0000B04207D0A04205D0B84203D0604501D013
:101A1000404503D122F44075CA682A434D6922F03B
:101A200080022A4302608A68C2620A68826298421F
:101A300007D0A04205D0B84203D0604501D0404550
:101A400001D10969016301214161BDE8F083000012
:101A5000002C014000040040000800400034014018
:101A6000004001400044014000480140012120F8AD
:101A7000401F00210180818001820846704730F8B4
:101A8000401F21F43F41018000207047FEE7090715
:101A9000090E002804DB00F1E02080F800147047F4
:101AA00000F00F0000F1E02080F8141D704702E004
:101AB00008C8121F08C1002AFAD1704770470020D9
:101AC00001E001C1121F002AFBD170471CB5FEF7CF
:101AD00047FEFFF721FFFFF75DFEFFF7B5FEFFF7BB
:101AE000DDFE1248104900240160082141600221F6
:101AF0008160846104620161FEF7D8FE08B172B6AC
:101B0000FEE700940023C82209A10A48019400F0CE
:101B10002BFC00940023C82207A10848019400F080
:101B200023FC00F03BFBFEE7005C004020010020AE
:101B30004F4E45001121000854574F003121000835
:101B40002DE9F041184C0F46054666692068001DD6
:101B500000F01AFA38B9206890F82C10012088405B
:101B6000A1698143A161681C07D137B12168BDE833
:101B7000F0410E48091D00F04BBA20683544B542CB
:101B80004560216805D2A068BDE8F041091D00F05C
:101B900027BA6068091D00F023FA206B854200D245
:101BA0002563BDE8F08100001000002088070020B8
:101BB0002DE9F041054600F037FA2E4C2069401C13
:101BC000206120682C4F10B1E06940B32DE0256002
:101BD0002069012829D1002606EB860007EB80004A
:101BE00000F0F0F9761C072EF6D323488C3000F075
:101BF000E9F92148A03000F0E5F91F48B43000F0C1
:101C0000E1F91D48C83000F0DDF91B48DC3000F078
:101C1000D9F919488C3060601430A06005E0206864
:101C2000E96AC06A884200D82560E06A401CE06228
:101C3000E96A0120A26988401043A06101EB81009C
:101C400007EB8000291D00F0E3F900F00DFAE069D0
:101C500000280CD02068E96AC06A884207D2074988
:101C60004FF080500860BFF34F8FBFF36F8FBDE818
:101C7000F081000010000020AC06002004ED00E020
:101C800010B5044690F8510058B101280CD0022834
:101C90000FD0502080F31188BFF34F8FBFF36F8FA9
:101CA000FEE7206B00F0F4F92046BDE8104000F09C
:101CB000EFB910BD10484FF44061420706D0C01D77
:101CC0000D4920F00700411AC1F540610B4A00237D
:101CD0000144C2E900030839103A21F007011160FC
:101CE0004B600B600B1AC0E9001393604FF000408B
:101CF0005360D060704700009C0700205C0000200B
:101D0000144E154CA6F1C8074FF08058DFF84C90E0
:101D100012E000BF00F088F9F068C568281D00F0E7
:101D200033F92069401E2061E068401EE06000F049
:101D30009BF92846FFF7A4FFE0680028EAD138683D
:101D40000128F9D9C9F80080BFF34F8FBFF36F8F17
:101D5000F2E70000740700201000002004ED00E00E
:101D60002DE9F0479A46DDE9098481466FF00303C7
:101D7000206B03EB82021044089D20F007067007D9
:101D800007D0502080F31188BFF34F8FBFF36F8FC0
:101D9000FEE723180A5C83F834200A5C12B1401C69
:101DA0001028F6D3002784F84370072D00D30625AA
:101DB000E562C4E91157201D00F00FF904F1180085
:101DC00000F00BF92461C5F107006462A061E764CB
:101DD00084F8507052464946304600F0BFF8206003
:101DE000B8F1000F01D0C8F80040BDE8F08700004E
:101DF00030B5114900E011460A688242FBD34B68B6
:101E00005C18844203D1406818444860084643681F
:101E10001C18944209D1084C103C2468A24209D0F5
:101E200052681A4442600A6812680260814200D017
:101E3000086030BD0460F9E75C0000200648416896
:101E4000096829B14168C968C96849680163704770
:101E50004FF0FF31FAE7000010000020084840680A
:101E6000401C4FF0500080F3118804D0BFF34F8F17
:101E7000BFF36F8FFEE7BFF34F8FBFF36F8FFEE7A8
:101E8000640000202DE9F0410546002700F0BCF970
:101E9000314E306808B9FFF70DFFF06805424BD1AD
:101EA000C5B3083568070ED005F00700C0F108007B
:101EB0000544680707D0502080F31188BFF34F8F87
:101EC000BFF36F8FFEE72DB37068854234D8224888
:101ED000103001460C6801E020460C466168A942BA
:101EE00002D221680029F7D131688C4224D00768DA
:101EF0002168016060680837411B10290FD96019FB
:101F0000420708D0502080F31188BFF34F8FBFF3F2
:101F10006F8FFEE710E041606560FFF769FF616861
:101F20007068401A7060B268904200D2B060F06889
:101F300001430020C4E9000100F0D2FA780707D07D
:101F4000502080F31188BFF34F8FBFF36F8FFEE7F0
:101F50003846BDE8F08100004C00002010B5031F9A
:101F60004FF080741C601B1F21F001011960191FC4
:101F7000044B0B6014390A60091F6FF002024438E9
:101F80000A6010BD5D1E0008D0E9013201699A6047
:101F9000D0E901235A604A68824201D182684A60CE
:101FA000002202610868401E08600868704700004F
:101FB000034B036003F154000860802010607047F9
:101FC0000C04002000F108014FF0FF32C0E90112BB
:101FD000C16001610021016070470021016170470B
:101FE00030B50B685A1C02D000F1080202E0026909
:101FF00004E02246546825689D42FAD953684B6034
:1020000099608A60516008610168491C016030BDB7
:1020100042684A6093688B60936859609160086178
:102020000168491C01607047502080F31188BFF39C
:102030004F8FBFF36F8F0A494868401C48600128E2
:102040000CD10848006810F0FF0F07D0502080F333
:102050001188BFF34F8FBFF36F8FFEE7704700000B
:102060006400002004ED00E00849486828B1401EE3
:10207000486001D180F311887047502080F31188A7
:10208000BFF34F8FBFF36F8FFEE7000064000020A7
:1020900070B5002827D0144DA0F108046168E868E5
:1020A000014207D1502080F31188BFF34F8FBFF357
:1020B0006F8FFEE722683AB1502080F31188BFF39A
:1020C0004F8FBFF36F8FFEE78143616000F09CF894
:1020D00060686968084468602046FFF789FEBDE8CB
:1020E000704000F0FDB970BD4C0000204FF0E020C2
:1020F00000210161816105494FF47A720968B1FBE1
:10210000F2F1491E41610721016170470C00002076
:10211000064D4FF480744FF47A7621462846FEF738
:1021200021FA304600F014F8F7E7000000100048EC
:10213000064D4FF400444FF4967621462846FEF7AC
:1021400011FA304600F004F8F7E7000000100048EC
:1021500010B5020014D00F48806B38B1502080F3C6
:102160001188BFF34F8FBFF36F8FFEE700F04CF87D
:1021700000211046FFF7E4FC00F0B2F9002807D177
:1021800005494FF080500860BFF34F8FBFF36F8F4A
:1021900010BD00001000002004ED00E010B586B076
:1021A0000024039405AA04A903A80494FFF700FFE0
:1021B000DDE903010094CDE9011000230EA11048D0
:1021C000059A00F0FEF80F490028486311D050200E
:1021D00080F31188BFF34F8FBFF36F8F4FF0FF3045
:1021E00008630120C8614C6106B0BDE8104000F0F2
:1021F00041B806B010BD000049444C450000000045
:10220000011D0008100000200248816B491C8163F9
:1022100070470000100000201448816B11B10121AB
:1022200041627047002141628169B1FA81F1C1F1D7
:102230001F0101EB81020E4951F822306BB101EB15
:10224000820101F108034A6852684A609A4201D14A
:1022500052684A60D16801607047502080F311884D
:10226000BFF34F8FBFF36F8FFEE700001000002019
:10227000AC0600201CB537480168374A914207D1A7
:10228000502080F31188BFF34F8FBFF36F8FFEE7AD
:1022900000683149491E884207D1502080F31188D7
:1022A000BFF34F8FBFF36F8FFEE72C490878019083
:1022B000FF20087008788DF800009DF800009DF858
:1022C000002000F0F000904207D0502080F31188E9
:1022D000BFF34F8FBFF36F8FFEE79DF80000204BD9
:1022E00000F0500018700720986005E09DF800206D
:1022F00052008DF80020401E9DF800201206F5D4F3
:102300009860032807D0502080F31188BFF34F8FC7
:10231000BFF36F8FFEE74FF440709860019808702C
:102320000C482030016841F470010160016841F0FF
:1023300070410160FFF7DAFE00205860FDF754FF9E
:102340000848016841F040410160FDF739FF002075
:102350001CBD000000ED00E071C20F4100E400E090
:102360006400002034EF00E02DE9FF5F8346DDE9E3
:102370000E87994616468A469000FFF783FD0500B2
:102380001CD05420FFF77EFD040014D000202563EC
:1023900084F85100CDE90240CDE900874B46324632
:1023A00051465846FFF7DCFC2046FFF701FC0120B0
:1023B00004B0BDE8F09F2846FFF76AFE4FF0FF30FB
:1023C000F6E7F0B585B0DDE90B640A9DA6B1DCB196
:1023D000542700972663022684F85160002604AF34
:1023E000CDE90246CDE90057FFF7BAFC2046FFF7DA
:1023F000DFFB049805B0F0BD502080F31188BFF3D7
:102400004F8FBFF36F8FFEE7502080F31188BFF32B
:102410004F8FBFF36F8FFEE72DE9F0412E4C002761
:10242000A06B40B1206A401C2062606A00B10127A5
:102430003846BDE8F0816669761C666113D1606834
:10244000006838B1502080F31188BFF34F8FBFF37D
:102450006F8FFEE76068A1686160A060A06A401CA1
:10246000A062FFF7EBFC206BDFF87080864209D397
:102470006068006880B16068C068C5686868864246
:102480000DD220632068C06A00EB800158F821005B
:102490000128CAD90127C8E74FF0FF30F1E7281D0E
:1024A000FFF772FDA86A18B105F11800FFF76CFD7F
:1024B000E86A0121A26981401143A16100EB80011A
:1024C00008EB8100291DFFF7A3FDE86A2168C96AAE
:1024D0008842CDD30127CBE710000020AC060020B6
:1024E0002DE9F0472C4D00242746A86B38B1FFF7A3
:1024F0009BFDA86B401EA863A86B40B146E050202E
:1025000080F31188BFF34F8FBFF36F8FFEE7296908
:10251000224E0120D1B3A6F1B40980463068E8B15B
:10252000F068C46804F11800FFF72EFD201DFFF7C6
:102530002BFDE06AAA6908FA00F11143A96100EBDA
:10254000800109EB8100211DFFF762FDE06A296827
:10255000C96A8842E2D3C5F82480DFE70CB1FFF7EF
:102560006DFC2C6A44B14646FFF756FF00B16E621F
:10257000641EF9D100202862686A38B10849012731
:1025800038070860BFF34F8FBFF36F8FFFF76CFD05
:102590003846BDE8F08700001000002060070020EA
:1025A00004ED00E002030405060708090A0B0C0D00
:1025B0000E0F10100102030405060708090A0B0C90
:1025C0000D0E0F10000000000000000001020304C7
:1025D000060708090000000001020304FC250008AA
:1025E0000000002070000000AE1A00086C260008F1
:1025F00070000020301B0000BE1A0008010000001F
:10260000100000000000000000127A00000000002E
:1026100000000000000000000000000000000000BA
:1026200000000000000000000000000000000000AA
:10263000000000000000000000000000000000009A
:10264000000000000000000000000000000000008A
:10265000000000000000000000000000000000007A
:0C26600000000000AAAAAAAA00000000C6
:040000050800018965
:00000001FF
