:020000040800F2
:10000000B05A0020F10200083F1F0008AF1D000891
:100010003D1F00080B08000897240008000000009E
:100020000000000000000000000000003102000895
:100030000D080008000000008D020008411F0008A4
:100040000B0300080B0300080B0300080B03000858
:100050000B0300080B0300080B0300080B03000848
:100060000B0300080B0300080B0300080B03000838
:100070000B0300080B0300080B0300080B03000828
:100080000B0300080B0300080B0300080B03000818
:100090000B0300080B0300080B0300080B03000808
:1000A0000B0300080B0300080B0300080B030008F8
:1000B0000B030008092000080B0300080B030008CD
:1000C0000B0300080B0300080B0300080B030008D8
:1000D0000B0300080B0300080B0300080B030008C8
:1000E0000B0300080B0300080B0300080B030008B8
:1000F0000B0300080B0300080B0300080B030008A8
:100100000000000000000000000000000B030008D9
:100110000B0300080B0300080B0300080B03000887
:100120000B0300080B0300080B0300080B03000877
:100130000B0300080B030008000000000000000093
:100140000B0300080B0300080B030008000000006D
:10015000000000000000000000000000000000009F
:1001600000000000000000000B0300080B03000863
:100170000B03000800000000000000000000000069
:10018000000000000B03000800F002F800F041F846
:100190000AA090E8000C82448344AAF10107DA45E2
:1001A00001D100F036F8AFF2090EBAE80F0013F0F3
:1001B000010F18BFFB1A43F001031847EC3B000086
:1001C0000C3C0000103A24BF78C878C1FAD8520716
:1001D00024BF30C830C144BF04680C6070470000C1
:1001E0000023002400250026103A28BF78C1FBD840
:1001F000520728BF30C148BF0B607047642900F028
:100200005781002070471FB503F0ACFD1FBD10B52E
:1002100010BD00F0C0FA1146FFF7F5FF02F04CF9EF
:1002200000F0DEFA03B4FFF7F2FF03BC00F0E6FAD9
:100230002C4B19680868B0E8F04F80F30988BFF3C9
:100240006F8F4FF0000080F31188704700000000AE
:1002500008480068006880F308884FF0000080F3C9
:10026000148862B661B6BFF34F8FBFF36F8F00DFA4
:1002700000BF00BF08ED00E0DFF80C00016841F4AA
:1002800070010160704700BF88ED00E0EFF3098066
:10029000BFF36F8F134B1A681EF0100F08BF20EDCD
:1002A000108A20E9F04F106009B44FF0BF0080F3CE
:1002B0001188BFF34F8FBFF36F8F03F015F84FF026
:1002C000000080F3118809BC19680868B0E8F04F95
:1002D0001EF0100F08BFB0EC108A80F30988BFF33E
:1002E0006F8F704728000020EFF3058070470000F3
:1002F0000948804709480047FEE7FEE7FEE7FEE7BA
:10030000FEE7FEE7FEE7FEE7FEE7FEE704480549F5
:10031000054A064B70470000F91F000889010008D4
:10032000B04A0020B05A0020B0520020B052002045
:1003300053EA020C00F069802DE9F04B4FF0000603
:10034000002B1FBFB3FA83F503FA05F424FA05F670
:100350005E4012BF1643B2FA82F502FA05F4C5F107
:1003600020051EBF22FA05FC44EA0C04203556EA9B
:10037000044C4FEA144418BF641C4FF000084FF0BF
:100380000009904271EB030C39D3002919BFB1FA6F
:1003900081F701FA07F6B0FA80F700FA07F6C7F11D
:1003A00020071EBF20FA07FC46EA0C062037B6FBE2
:1003B000F4FCA7EB0507103F07F01F0BCBF120065D
:1003C0000CFA0BFB2CFA06F644BFB3460026202F8E
:1003D000A4BF5E464FF0000B5BEA060C08BF4FF06F
:1003E000010B19EB0B09ABFB027C48EB0608C01BA9
:1003F00006FB02CC0BFB03CC71EB0C01C1E70B46F7
:10040000024641464846BDE8F08B13B54FF0000068
:100410004FF00001AFF30080BDE81C4070470000C2
:100420000FB41CB5074B06AA7B446946009005989B
:1004300000F099F90020694600F0A8F91CBC5DF8AD
:1004400014FB0000610300002DE9F0410E46044654
:10045000002020622046E168884730B3252805D077
:10046000D4E901219047206A401CF2E7E168204668
:1004700000278847050018D0A5F14100192802D8A7
:1004800020354FF400673246294620462760FFF7A3
:10049000B5FE40B1012804D0F61D26F00706083647
:1004A000D8E7361DD6E72846DAE7206ABDE8F081AE
:1004B0002DE9F0410646002410687529314616A53D
:1004C00010D0AFF30080002802DA404213A507E005
:1004D00031688A0701D512A502E0490704D511A5A4
:1004E000012401E0AFF3008000210A2206F1240775
:1004F00009E0B0FBF2FCB0FBF2F302FB1C00303071
:1005000078541846491C0028F3D123462A46304621
:10051000BDE8F04100F0C8B8000000002D00000068
:100520002B0000002000000010B5431C02E010F872
:10053000011B71B18107FAD14FF0013202C88C1A48
:100540008C4314EAC211F9D0C01A0A0603D0C01EA7
:1005500010BDC01A10BD0A0401D0801E10BD0902D2
:10056000FCD0401E10BD032A40F2308010F0030C76
:1005700000F0158011F8013BBCF1020F624498BFF6
:1005800011F801CB00F8013B38BF11F8013BA2F193
:10059000040298BF00F801CB38BF00F8013B11F00E
:1005A000030300F02580083AC0F0088051F8043BAE
:1005B000083A51F804CBA0E80810F5E7121D5CBF1B
:1005C00051F8043B40F8043BAFF30080D20724BF4E
:1005D00011F8013B11F801CB48BF11F8012B24BFE2
:1005E00000F8013B00F801CB48BF00F8012B704731
:1005F00010B5203AC0F00B80B1E81850203AA0E8BE
:100600001850B1E81850A0E81850BFF4F5AF5FEAF1
:10061000027C24BFB1E81850A0E8185044BF18C9A4
:1006200018C0BDE810405FEA827C24BF51F8043B4B
:1006300040F8043B08BF7047D20728BF31F8023B9F
:1006400048BF11F8012B28BF20F8023B48BF00F833
:10065000012B70474FF0000200B5134694469646B2
:10066000203922BFA0E80C50A0E80C50B1F12001C5
:10067000BFF4F7AF090728BFA0E80C5048BF0CC073
:100680005DF804EB890028BF40F8042B08BF7047D1
:1006900048BF20F8022B11F0804F18BF00F8012B43
:1006A00070477047704770472DE9F0470D469946EF
:1006B0009246044600F124080168880604D5E069E2
:1006C00021F01001216000E00120A84201DD471B5C
:1006D00000E00027A1697A1902EB0900081AA0615D
:1006E0002078C00602D42046AFF30080002608E040
:1006F000D4E901211AF806009047206A401C761CB4
:1007000020624E45F4DB2078C0060AD52046AFF3C0
:10071000008006E0D4E9012130209047206A401C87
:100720002062381EA7F10107F4DC07E0D4E90121BB
:1007300018F805009047206A401C2062281EA5F189
:100740000105F3DC2046AFF300802078000602D5D7
:100750000220BDE8F0870120FBE7000001694A1C88
:1007600002610878704700B58FB0CDE901310021F2
:10077000059105497944CDE9031011466846FFF714
:1007800063FE0FB000BD0000E5FFFFFF0A6802F83E
:10079000010B0A607047754600F02CF8AE46050064
:1007A0006946534620F00700854618B020B5FFF78C
:1007B000ADFDBDE820404FF000064FF000074FF0C0
:1007C00000084FF0000B21F00701AC46ACE8C0096F
:1007D000ACE8C009ACE8C009ACE8C0098D46704778
:1007E00010B50446AFF300802046BDE81040FFF787
:1007F00019BD0000004870474C4A002001491820EC
:10080000ABBEFEE7260002007047FEE7704700001F
:100810002DE9F04FDFF8AC91002309F1040A03251C
:100820000AF1040B85B04FF0010C0F270BF1040EF9
:10083000BFE000BF0CFA03F6324075D00C7904F02B
:100840000304012C01D0022C1BD1846800945C00AD
:1008500005FA04F80494009C24EA08040094D1F8F2
:100860000C80049C08FA04F8009C48EA0408C0F8CC
:1008700008804468B4430E79C6F300169E402643B0
:1008800046600C79E443A4070AD0C4684FEA4308E1
:1008900005FA08F6B4438E6806FA08F62643C660E1
:1008A0000C7904F00304022C10D1DC0800EB840462
:1008B0000294246A5E074FEAD66807FA08F6B44342
:1008C0000E6906FA08F62643029C266204684FEA7F
:1008D000430805FA08F6B4430E7906F0030606FA53
:1008E00008F6264306604C6814F4403F60D0364C4E
:1008F000A66946F00106A661A46923F0030604F088
:1009000001040094314C34440294A4689E074FEAD9
:10091000167807FA08F6B443B0F1904F05D02C4E84
:10092000B04204D1012612E042E000260FE0294E39
:10093000B04201D102260AE0274EB04201D103267F
:1009400005E0264EB04201D1042600E0052606FA55
:1009500008F62643029CA660D9F800604C46D1F800
:10096000048096435FEAC83800D516432660DAF85B
:1009700000405646D1F8048094435FEA883800D599
:1009800014433460DBF800405E46D1F804809443A1
:100990005FEAC82800D514433460DEF8004076468C
:1009A000D1F8048094435FEA882800D5144334606A
:1009B0005B1C0A6832FA03F47FF43CAF05B0BDE873
:1009C000F08F0000000401400010024000000140D0
:1009D0000004004800080048000C004800100048CF
:1009E0000069084000D0012070470AB1816170475A
:1009F000816270470148806870470000180000203D
:100A000090F84120202A24D190F84020012A20D0BB
:100A1000012280F84020242280F8412002681368D7
:100A200023F0010313600268136823F480531360FA
:100A3000026813680B43136001680A6842F0010200
:100A40000A60202180F84110002180F840100846FB
:100A500070470220704790F84120202A22D190F858
:100A60004020012A1ED0012280F84020242280F854
:100A700041200268136823F00103136002681368C1
:100A800023F4706343EA0121116001680A6842F0AF
:100A900001020A60202180F84110002180F84010F6
:100AA000084670470220704770B5040004D094F8DF
:100AB0004100002510B106E0012070BD84F84050CF
:100AC000204600F04DF8242084F841002068016899
:100AD00021F0010101606068216820F07060086108
:100AE0002068816821F400418160E0680128A068E5
:100AF00007D040F4044021688860E068022803D0F1
:100B000006E040F40040F6E721684FF400604860DA
:100B100020684168114A114341602068C16821F48E
:100B20000041C160D4E904010843A16940EA012001
:100B30002168C860D4E9070108432168086020687B
:100B4000016841F0010101606564202084F84100E2
:100B5000256384F84250002070BD00000080000230
:100B600010B586B0044614216846FFF773FD12499C
:100B7000206888421ED1114C606940F48020606179
:100B80006069694600F480200590C0200090122022
:100B90000190012002900320039004200490084853
:100BA000FFF736FEE06940F40010E061E06900F410
:100BB0000010059006B010BD005400400010024027
:100BC000000400480248816802781144816070473F
:100BD00018000020074810B5016841F010010160BD
:100BE000032000F087F8002000F006F800F03EF83F
:100BF000002010BD0020024000B5014687B0002251
:100C00001D2000F057F81D2000F046F81348C16978
:100C100041F00201C161C06905A900F0020006901F
:100C2000684600F0AFFA00F0CDFA0D494000B0FB85
:100C3000F1F10D480B4A491E0260416040F2E73273
:100C40000021C0E90321816000F0B1FE10B1012054
:100C500007B000BD044800F0DDFEF9E700100240D7
:100C600040420F0000040040C0040020094808B5BD
:100C7000816941F001018161816901F00101009107
:100C8000C16941F08051C161C06900F0805000909D
:100C900008BD000000100240002809DB00F01F0220
:100CA000012191404009800000F1E020C0F80011CE
:100CB00070470000F0B40E4B1B680C46C3F30223D0
:100CC000C3F10705042D00D90425191D072901D2F8
:100CD000002300E0DB1E012606FA05F1491E214033
:100CE00099409E40761E16403143F0BC01F0D4BBC3
:100CF0000CED00E0064900F0070208684FF6FF031C
:100D0000184040EA0220034A104308607047000080
:100D10000CED00E00000FA0570B586B0040004D0C8
:100D200094F8A902002518B107E0012006B070BDB3
:100D300084F8A852204600F043F8032084F8A90262
:100D4000206801F0A1FB002001260EE000EB8001ED
:100D500004EBC10181F8296001F8280FC881CD702A
:100D60000D614D61401CC0B28D6161688142EDD85A
:100D7000002011E000EB800104EBC10181F8695112
:100D800081F8680181F86B51C1F87851C1F87C5144
:100D9000401CC0B2C1F8805161688142EAD8142277
:100DA00004F110016846FFF723FC94E80F0001F0FE
:100DB00062FB84F8245084F8A9620020B6E70000A2
:100DC00010B586B0044614216846FFF743FC13496A
:100DD0002068884220D1124C606940F40030606184
:100DE0006069694600F4003005904FF4C0500090EF
:100DF0000220019000200290032003900E20049016
:100E00004FF09040FFF704FDE06940F40000E0611E
:100E1000E06900F40000059006B010BD005C0040E1
:100E2000001002402DE9F84F044600680026804D6E
:100E3000C0036ED5E869C00008D4E86940F080506E
:100E4000E861E869012600F0805000907948016867
:100E5000C90512D40168804641F480710160FFF732
:100E6000C9FD074605E000BFFFF7C4FDC01B6428AD
:100E700035D8D8F80000C005F6D5286A10F44070BF
:100E800053D0A18801F4407181424ED0286A4FF4BA
:100E9000803191FAA1F2B2FA82F29700664A4FF0DD
:100EA0000108174420F44070C7F8008491FAA1F1BA
:100EB000B1FA81F102EB81010023C1F8003428620C
:100EC000C00732D0FFF796FD074641F2883A4FF04F
:100ED000020907E0FFF78EFDC11B514502D903202F
:100EE000BDE8F88F99FAA9F0B0FA80F040F040021E
:100EF0004946B8EB521F01D12A680CE091FAA1F2E1
:100F0000B2FA82F242F04002B1EB521F02D12A6AD9
:100F100001E015E06A6A99FAA9F1B1FA81F101F0EC
:100F20001F0108FA01F00242D4D0286A616820F457
:100F30004070084328621EB1E86920F08050E861E3
:100F40002078C00705D0286BA16820F00300084373
:100F500028632078800705D5286BE16820F44030AD
:100F6000084328632078400705D5286B216920F4C1
:100F70004020084328632078800605D5286BE16966
:100F800020F01000084328632068800305D56868B6
:100F9000A16B20F48000084368602078400605D5E6
:100FA000286B216A20F0200008432863207800077E
:100FB00005D5286B616920F4401008432863207828
:100FC000C00605D5286BA16920F4400008432863BA
:100FD0002088800505D56868E16A20F40000084390
:100FE00068602078000605D5E86A616A20F4F87028
:100FF0000843E8622088C00505D5E86AA16A20F4A4
:1010000078500843E8622088C00405D5286B216B1E
:1010100020F48070084328632088800405D5286B5D
:10102000616B20F4007008432863002058E700003B
:101030000010024000700040000042422DE9F047DD
:101040000F46050069D04A4E306800F00700B842EC
:1010500009D2306820F0070038433060306800F073
:101060000700B84259D12878424C800705D56068FE
:10107000A96820F0F000084360602878C0073DD0E0
:101080006968012001290DD0022923D05FF00203F5
:1010900093FAA3F2B2FA82F242F02002520904D08B
:1010A000226803E04FF40033F2E7626A93FAA3F395
:1010B000B3FA83F303F01F03984002422DD0606817
:1010C00020F0030008436060FFF794FC804641F283
:1010D00088390CE04FF00073DAE700BFFFF78AFCB5
:1010E000A0EB0801494502D90320BDE8F0876068FC
:1010F000696800F00C00B0EB810FEFD1306800F0B0
:101100000700B8420BD9306820F007003843306040
:10111000306800F00700B84201D00120E5E72878E8
:10112000400705D56068E96820F4E0600843606026
:101130002878000706D56068296920F4605040EAE5
:10114000C100606000F06EF86168F02292FAA2F2CD
:1011500001F0F001B2FA82F2D140074A515CC84076
:101160000649086006480068FFF746FD0020BCE716
:1011700000200240001002408E3D000824000020A4
:101180001C0000200F2202600C4A536803F0030386
:101190004360536803F0F0038360536803F4E06333
:1011A000C36052684FF4E06303EAD202026104486C
:1011B000006800F00700086070470000001002405F
:1011C0000020024008480949006849684FF4E0627D
:1011D00092FAA2F201F4E061B2FA82F2D140044A3A
:1011E000515CC840704700002400002000100240FD
:1011F0009E3D000808480949006849684FF460525C
:1012000092FAA2F201F46051B2FA82F2D140044A99
:10121000515CC840704700002400002000100240CC
:101220009E3D0008164A10B55168164801F00C039F
:10123000042B20D0082B1ED14FF4701494FAA4F480
:1012400001F47013B4FA84F4E3400F4CD26AE45C06
:101250000F2393FAA3F302F00F02B3FA83F3DA40F9
:10126000094B1033C9039A5C06D500231946FFF7D2
:101270005FF8A0FB040110BD0448A4FB000110BDF1
:101280000010024000127A006E3D000800093D0087
:101290002DE9F84F050071D02878FC4EC0074FF0BB
:1012A000010425D070686704C0F38100012807D0CD
:1012B0007068C0F3810002281BD17068C00318D584
:1012C00097FAA7F0B0FA80F040F02000400901D072
:1012D000306800E0706A97FAA7F1B1FA81F101F085
:1012E0001F0104FA01F1084265D068680028D2D0D5
:1012F00061E06868B0F5803F0BD010B1B0F5A02F69
:1013000017D0306820F480303060306820F48020BE
:1013100002E0306840F480303060F06AA96820F064
:101320000F000843F062686820B3FFF763FB804654
:101330000AE0306840F480203060EAE7FFF75AFBAB
:10134000A0EB0800642871D897FAA7F0B0FA80F0F3
:1013500040F02000400901D0306800E0706A97FA40
:10136000A7F1B1FA81F101F01F0104FA01F108427D
:10137000E4D020E0FFF73EFB804607E0C2E000BF7C
:10138000FFF738FBA0EB08006428DCD897FAA7F039
:10139000B0FA80F040F02000400901D0306800E051
:1013A000706A97FAA7F1B1FA81F101F01F0104FA0E
:1013B00001F10842E4D12878DFF8D48280074FF0A9
:1013C000000A4FF0020730D570684FF0F80B10F0AC
:1013D0000C0F07D07068C0F38100022827D1706815
:1013E000C00324D497FAA7F0B0FA80F040F02000B0
:1013F000400901D0306800E0706A97FAA7F1B1FAAD
:1014000081F101F01F0104FA01F1084202D02869BC
:10141000012877D130689BFAABF220F0F8016869B7
:10142000B2FA82F29040014331605AE064E12869E7
:1014300088B394FAA4F0B0FA80F048F82040FFF79F
:10144000D9FA814606E000BFFFF7D4FAA0EB090005
:1014500002289AD897FAA7F0B0FA80F040F020005E
:10146000400901D0306800E0706A97FAA7F1B1FA3C
:1014700081F101F01F0104FA01F10842E4D0306863
:101480009BFAABF26969B2FA82F220F0F80091405F
:101490000843306025E0FFE794FAA4F0B0FA80F04A
:1014A00048F820A0FFF7A6FA814605E0FFF7A2FA68
:1014B000A0EB09000228CCD897FAA7F0B0FA80F088
:1014C00040F02000400901D0306800E0706A97FACF
:1014D000A7F1B1FA81F101F01F0104FA01F108420C
:1014E000E4D1287800076CD5A869A8B394FAA4F0D1
:1014F000B0FA80F008EB8000C0F88044FFF77AFA79
:10150000814607E0A4E100BFFFF774FAA0EB0900F1
:1015100002289ED897FAA7F0B0FA80F040F0600059
:10152000B4EB501F01D130680BE097FAA7F0B0FA86
:1015300080F040F06000B7EB501F01D1306A00E04E
:10154000706A97FAA7F1B1FA81F101F01F0104FA6C
:1015500001F21042D8D034E0FFE794FAA4F1B1FAD6
:1015600081F108EB8101C1F880A4FFF743FA8146BD
:1015700006E000BFFFF73EFAA0EB090002289AD868
:1015800097FAA7F0B0FA80F040F06000B4EB501F7B
:1015900001D130680BE097FAA7F0B0FA80F040F084
:1015A0006000B7EB501F01D1306A00E0706A97FA13
:1015B000A7F1B1FA81F101F01F0104FA01F2104222
:1015C000D8D12878400768D5F0694FF00009C000ED
:1015D00009D4F06940F08050F061F0694FF00109E2
:1015E00000F0805000902B480168C90512D40168B2
:1015F00041F480710160FFF7FDF9834606E000BF0A
:10160000FFF7F8F9A0EB0B00642875D821480068B3
:10161000C005F5D5E86801280AD008B1052811D021
:10162000306A20F001003062306A20F0040002E0ED
:10163000306A40F001003062E86868B3FFF7DAF919
:1016400083460DE0306A40F004003062F0E700BFEE
:10165000FFF7D0F9A0EB0B0141F2883081424BD863
:1016600097FAA7F0B0FA80F040F04000B4EB501FBA
:1016700001D1306813E097FAA7F0B0FA80F040F09B
:101680004000B7EB501F09D1306A08E0001002405B
:1016900000004242007000400CE040E0706A97FA9F
:1016A000A7F1B1FA81F101F01F0104FA01F2104231
:1016B000CED02DE0FFF79EF9834607E0FFF79AF9B9
:1016C000A0EB0B0141F28830814215D897FAA7F0C0
:1016D000B0FA80F040F04000B4EB501F01D1306808
:1016E0000CE097FAA7F0B0FA80F040F04000B7EBBA
:1016F000501F02D1306A01E083E0706A97FAA7F1C7
:10170000B1FA81F101F01F0104FA01F21042D5D1C2
:10171000B9F1000F03D0F06920F08050F061E86962
:1017200080B37168C1F38101022977D04FF08071D5
:101730004F000228504609D091FAA1F1B1FA81F187
:1017400048F82100FFF756F905465DE0894691FA11
:10175000A1F1B1FA81F1C24648F82100FFF74AF938
:10176000804605E0FFF746F9A0EB0800022848D8BC
:1017700097FAA7F0B0FA80F040F02000400902D0BC
:10178000306801E066E0706A97FAA7F1B1FA81F17A
:1017900001F01F0104FA01F10842E3D1D5E9081074
:1017A0000843716821F474110843706099FAA9F034
:1017B000B0FA80F04AF82040FFF71CF9054604E033
:1017C000FFF718F9401B02281BD897FAA7F0B0FAC8
:1017D00080F040F02000400901D0306800E0706ADD
:1017E00097FAA7F1B1FA81F101F01F0104FA01F1B2
:1017F0000842E5D02EE000BFFFF7FCF8401B0228AE
:1018000002D90320BDE8F88F97FAA7F0B0FA80F06C
:1018100040F02000400902D0306801E00BE0706A1F
:1018200097FAA7F1B1FA81F101F01F0104FA01F171
:101830000842E1D10EE00128E4D070682A6A00F481
:101840008031914204D1696A00F47010884201D05D
:101850000120D7E70020D5E770B5040009D0606A01
:10186000002540B125616561A56294F85D0040B135
:101870000CE0012070BD6068B0F5827FF4D0E561B6
:10188000F2E784F85C50204600F05CF8022084F80F
:101890005D002068016821F040010160E1684FF4BB
:1018A000E062914201D9002001E04FF48050B1F58F
:1018B000706F02D0914200D0A562A188228901F404
:1018C000827102F404421143227C02F002021143AD
:1018D000227D02F001021143228B02F400721143B7
:1018E000227F02F03802114394F8202002F0800297
:1018F0001143228D02F40052114322681160A16944
:10190000042202EA114194F8242000F4805002F0ED
:101910001002114394F8342002F008021143A28906
:1019200002F4706211430143206841602068C1697C
:1019300021F40061C1612566012084F85D0000206A
:1019400070BD000010B586B0044614216846FEF74D
:1019500081FE1349206888421FD11248816941F4F1
:1019600080518161816901F480510591416941F49F
:10197000003141614069694600F400300590E02083
:101980000090022001900020029003200390052087
:1019900004904FF09040FEF73BFF06B010BD0000F2
:1019A000003001400010024070477047704710B58A
:1019B000040003D094F83D0010B107E0012010BDF1
:1019C000002084F83C00204600F022F8022084F831
:1019D0003D00211D206800F01DFB012084F8480017
:1019E00084F83E0084F83F0084F8400084F8410009
:1019F00084F8420084F8430084F8440084F84500E9
:101A000084F8460084F8470084F83D00002010BDAB
:101A10007047000090F83D10012901D00120704767
:101A2000022180F83D100168CA6842F00102CA60D4
:101A30000068104988420ED0B0F1804F0BD00E499B
:101A4000884208D00D49884205D00D49884202D00D
:101A50000C49884207D181680B4A1140062906D0FB
:101A6000B1F5803F03D0016841F001010160002021
:101A700070470000002C01400004004000080040B6
:101A8000003401400040014007000100704770B57C
:101A90000446006801694FF00005C943890715D461
:101AA000C168C943890711D4E91E0161012020776B
:101AB000206880698007204602D0FFF7E7FF04E036
:101AC00000F0A7F8204600F0A5F825772068016906
:101AD000C943490717D4C168C943490713D46FF0F4
:101AE00004010161022020772068806910F4407FA2
:101AF000204602D0FFF7CAFF04E000F08AF8204633
:101B000000F088F8257720680169C943090716D4D1
:101B1000C168C943090712D46FF0080101610420AC
:101B200020772068C0698007204602D0FFF7AEFF0B
:101B300004E000F06EF8204600F06CF8257720688D
:101B40000169C943C90617D4C168C943C90613D47A
:101B50006FF010010161082020772068C06910F43F
:101B6000407F204602D0FFF791FF04E000F051F8DB
:101B7000204600F04FF8257720680169C943C9075E
:101B800008D1C168C943C90704D1891E0161204633
:101B900000F042F820680169C943090609D4C16808
:101BA000C943090605D46FF0800101612046FFF7A3
:101BB000FCFE20680169C943C90509D4C168C9434D
:101BC000090605D46FF4807101612046FFF7ECFE31
:101BD00020680169C943490609D4C168C943490657
:101BE00005D46FF040010161204600F01FF8206825
:101BF0000169C94389060BD4C168C943890607D462
:101C00006FF0200101612046BDE87040FFF7CEBEB5
:101C100070BD70477047000000680349884201D1D9
:101C2000FEF7D0BF7047000000040040704710B5B9
:101C3000040002D0A06F10B107E0012010BD002009
:101C400084F87400204600F025F82420A06720685E
:101C5000016821F001010160204600F0C5FA012869
:101C6000ECD0606A10B1204600F02CFA2068416880
:101C700021F4904141602068816821F02A0181604F
:101C80002068016841F0010101602046BDE8104074
:101C900000F07CBA10B586B0044614216846FEF701
:101CA000D9FC1249206888421ED11148816941F44B
:101CB00080418161816901F480410591416941F46C
:101CC000002141614069694600F400200590302000
:101CD0000090022001900020029003200390072032
:101CE00004900448FEF794FD06B010BD0038014092
:101CF00000100240000800482DE9F8430446806FB8
:101D00001F4616460D4620284FD1CDB1C6B194F8D6
:101D10007400012849D0012084F874004FF00008B5
:101D2000C4F880802120A067FEF764FEA4F850600C
:101D30008146A4F85260A068B0F5805F03D004E04B
:101D40000120BDE8F883206928B12E465FF0000528
:101D500084F8748010E00026FAE78021204600F025
:101D600027FBB8B9C6B116F8010B21680885B4F88D
:101D70005200401EA4F85200B4F852004B464FF0F7
:101D8000000200970028E8D14FF04001204600F003
:101D90000FFB30B10320D4E735F8020BC0F3080085
:101DA000E3E72020A0670020CBE70220C9E7FEE799
:101DB00070B586B014216846FEF74CFC274841698F
:101DC00041F400114161416901F40011059141693B
:101DD00041F400214161416901F40021059141690B
:101DE00041F480014161416901F48001059141693B
:101DF00041F400314161416901F4003105914169CB
:101E000041F4802141614069154E00F480204FF675
:101E100008750590002229463046FEF7E6FD37207A
:101E200000904FF490100024CDE90104694630463B
:101E3000FEF7EEFC00950125CDE9015469463046D8
:101E40000394FEF7E5FCCDE9005469464FF090405D
:101E50000294FEF7DDFC06B070BD000000100240E9
:101E600000100048124810B5104901601149416046
:101E700000210122C0E90212016141618161C16159
:101E80000162FEF711FE08B172B6FEE700210848B4
:101E9000FEF7B6FD08B172B6FEE700210448FEF772
:101EA000DAFD002801D072B6FEE710BD00540040F4
:101EB000A00000200E090020114810B50F49016054
:101EC0004FF48271416000214FF44072C0E9021268
:101ED0004FF400720161C0E905120822C0E9072130
:101EE00007234162C0E90A13C0E90C12FFF7B4FCF2
:101EF000002801D072B6FEE710BD0000003001409E
:101F0000EC0000200C4810B50A4901604FF4E131A3
:101F10004160002181600C22C160C0E9041281612E
:101F2000C16101624162FFF782FE002801D072B6F2
:101F3000FEE710BD0038014050010020FEE7FEE73B
:101F400010B5BF2080F31188BFF34F8FBFF36F8FA1
:101F500001F0F2FC18B104494FF0805008600020F5
:101F600080F3118810BD000004ED00E030B59FB093
:101F700028210FA8FEF76EFB142119A8FEF76AFBB3
:101F80003C216846FEF766FB03200F904FF4A0202B
:101F90000024CDE910040120139010201490022594
:101FA0000003CDE916504FF4E01018900FA8FFF78A
:101FB0006FF908B172B6FEE70F20CDE919054FF4AD
:101FC0008060CDE91B40022119A81D94FFF736F867
:101FD00008B172B6FEE707480294009007940E9489
:101FE0006846FEF71FFF002801D072B6FEE71FB05B
:101FF00030BD0000210002000248016841F4700178
:102000000160704788ED00E00148FFF740BD000027
:10201000C00400202DE9F0430268234B234D244ED9
:10202000244C4FF08049984207D0484505D0A8423B
:1020300003D0B04201D0A04203D122F070074A6819
:102040003A431D4FDFF874C0DFF8748098420DD01A
:1020500048450BD0A84209D0B04207D0A04205D0D5
:10206000B84203D0604501D0404503D122F4407509
:10207000CA682A434D6922F080022A4302608A68B6
:10208000C2620A688262984207D0A04205D0B84274
:1020900003D0604501D0404501D1096901630121A8
:1020A0004161BDE8F0830000002C014000040040C5
:1020B000000800400034014000400140004401405D
:1020C0000048014090F82410C90706D001684A680A
:1020D000836A22F400321A434A6090F82410890778
:1020E00006D501684A68C36A22F480321A434A60FE
:1020F00090F82410490706D501684A68036B22F45A
:1021000080221A434A6090F82410090706D5016816
:102110004A68436B22F400421A434A6090F8241044
:10212000C90606D501688A68836B22F480521A4377
:102130008A6090F82410890606D501688A68C36B06
:1021400022F400521A438A6090F82410490611D5EF
:1021500001684A68036C22F480121A434A60016CD9
:10216000B1F5801F06D101684A68436C22F4C002B1
:102170001A434A6090F82410090606D501684A6897
:10218000806C22F4002202434A607047F8B50026B2
:102190000446C0F88060FEF72DFC05462068006804
:1021A0006FF07E47000708D52B4600224FF4001140
:1021B0002046009700F0FCF860B9206800684007EE
:1021C0000AD52B4600224FF480012046009700F0EC
:1021D000EFF808B10320F8BD2020A067E06726666D
:1021E00084F874600020F8BD70B5044680682169E9
:1021F000E2690843616900251143226808431168B8
:1022000049F20C6399430143116020684168E26818
:1022100021F4405111434160216AA06901432068C3
:10222000826822F430620A4382605A4A20685A491E
:1022300090420CD1086B10F0030006D001285FD04B
:1022400002285FD0032845D158E0012143E0534ADA
:1022500090420DD1086B10F440304DD0B0F5803F66
:102260004ED0B0F5003F4DD0B0F5403F32D145E003
:102270004B4A90420DD1086B10F440203CD0B0F591
:10228000802F3DD0B0F5002F3CD0B0F5402F21D1AC
:1022900034E0444A90420DD1086B10F440102BD02A
:1022A000B0F5801F2CD0B0F5001F2BD0B0F5401F2B
:1022B00010D123E03C4A90420CD1086B10F440004E
:1022C0001AD0B0F5800F1BD0B0F5000F1AD0B0F5C2
:1022D000400F13D01021E3694FF40040334A4FF60A
:1022E000EF7683422ED109294AD2DFE801F00D10A2
:1022F00013491549494918000021ECE70221EAE792
:102300000421E8E70821E6E7FEF75CFF06E0FEF7B8
:1023100071FF03E0104602E0FEF784FF88B341003E
:10232000606801EB5001B1FBF0F081B2A1F1100047
:10233000B04225D84FF6F07201EA0200C1F3420123
:1023400008431FE009291BD2DFE801F005080B1A3A
:102350000D1A1A1A1000FEF735FF06E0FEF74AFFC5
:1023600003E0104602E0FEF75DFF50B1616800EB4C
:102370005100B0FBF1F080B2A0F11001B14201D9DF
:10238000012501E02168C86000206066A06628463B
:1023900070BD0000003801400010024000440040C1
:1023A00000480040004C00400050004000127A00FD
:1023B0002DE9F0479A4617460E4604464FF00009AD
:1023C0004FF02008089D4AE0681C48D0FEF712FB39
:1023D000A0EB0A00A8422AD84DB32068016849073B
:1023E0003DD5C069C043000539D421684FF4006071
:1023F0000862206850E8001F21F4D07140E8001204
:10240000002AF6D12068083050E8001F21F00101B1
:1024100040E80012002AF5D1C4F87880C4F87C8026
:10242000C4F8808084F874900320BDE8F0872168A8
:1024300051E8000F20F4D07041E80002002AF6D1E4
:102440002068083050E8001F21F0010140E8001228
:10245000002AF5D1C4F87880C4F87C80E2E72068CF
:10246000C06936EA000004D00020B842ACD0002099
:10247000DBE70120F9E7012120F8401F002101805E
:10248000818001820846704730F8401F21F43F41A7
:10249000018000207047FEE70907090E002804DBD1
:1024A00000F1E02080F80014704700F00F0000F108
:1024B000E02080F8141D70471CB5FEF78BFBFFF77A
:1024C00055FDFFF775FCFFF7CDFCFFF7F5FC1F4846
:1024D0001D4900240160082141600221816084615E
:1024E00004620161FEF718FC08B172B6FEE7FFF75F
:1024F00009FD00220421012000F050FF144DE86086
:10250000012000F039FF28612846CDE90040002372
:10251000C82210A1124801F063F9281DCDE900403E
:102520000023C8220FA1124801F05AF905F1080052
:10253000CDE900400023C8220EA1114801F050F956
:1025400000F09EFEFEE70000005C0040D401002089
:10255000000000205461736B5F425554544F4E008D
:10256000612F00085461736B5F4C4544000000000C
:10257000F92F00085461736B5F55415254000000FD
:10258000913000082DE9F0411A4C0F460546E668E7
:102590002068001D00F024FC681C15D1A7B1164965
:1025A00022684868906023688268DA6022688368DD
:1025B000121D5A602268121D8260206841610868FD
:1025C000401C0860BDE8F08120683544B542456094
:1025D000216805D2E06BBDE8F041091D00F021BC87
:1025E000A06B091D00F01DFCA06A8542EAD2A5621D
:1025F000E8E7000028000020100600202DE9F04147
:10260000054600F027FC354CA068401CA0602068FF
:10261000334F10B1606940B32DE02560A0680128F8
:1026200029D1002606EB860007EB800000F0EBFBCB
:10263000761C052EF6D32A48643000F0E4FB2848C7
:10264000783000F0E0FB26488C3000F0DCFB2448BA
:10265000A03000F0D8FB2248B43000F0D4FB204872
:102660006430A0631430E06305E02068E96AC06A62
:10267000884200D82560606A401C6062E86A21696F
:10268000884200D9206100EB800007EB80004068A1
:10269000A8608168E9608268291D51608160E86AEC
:1026A00000EB800007EB8001696157F82010491C9E
:1026B00047F8201000F0DCFB606900280CD020688F
:1026C000E96AC06A884207D206494FF08050086024
:1026D000BFF34F8FBFF36F8FBDE8F081280000205C
:1026E0005C05002004ED00E010B500F0B3FB0E4CDB
:1026F0002068A0B90D4800F086FB0C48143000F0AB
:1027000082FB0A48E06014302061002210210A2078
:1027100000F044FE206010B105A100F0E1FBBDE82F
:10272000104000F0A5BB0000680000202406002037
:10273000546D72510000000030B4026C0B46002A48
:102740000BD0C1681144C1608468A14201D3016803
:10275000C16030BC1846FDF706BF30BC70472DE99C
:10276000F041856B174604460026026C82B1C7B162
:10277000E068FDF7F8FEE168206C091AE160226864
:10278000914202D2A168081AE060022F16D017E029
:102790002068A8B9A06801F04DF906460020A060A5
:1027A0000EE06068FDF7DFFE216C60680844606041
:1027B000A168884204D32068606001E005B16D1E05
:1027C0006D1CA5633046BDE8F08110B50446006B72
:1027D00000F058FB2046BDE8104000F053BB00005D
:1027E00010484FF48841420706D0C01D0D4920F023
:1027F0000700411AC1F588410B4A00230144C2E990
:1028000000030839183A21F0070111604B600B6092
:102810000B1AC0E9001393604FF000405360506101
:10282000704700004C06002094000020144E154C08
:10283000A6F1A0074FF08058DFF84C9012E000BFDF
:1028400000F008FBF068C568281D00F0C9FAA06810
:10285000401EA0606068401E606000F009FB2846D2
:10286000FFF7B3FF60680028EAD138680128F9D97A
:10287000C9F80080BFF34F8FBFF36F8FF2E70000FE
:10288000FC0500202800002004ED00E02DE9F047C1
:102890009A46DDE9097481466FF00303206B03EB70
:1028A0008202089E104420F00708002561B1002034
:1028B00023180A5C83F834200A5C12B1401C1028EB
:1028C000F6D384F8435001E084F83450052E00D349
:1028D0000426E662C4E91165201D00F09FFA04F1A8
:1028E000180000F09BFA2461C6F105006462A06143
:1028F000E56484F8505052464946404600F018FAC4
:102900002060002F00D03C60BDE8F08730B5114951
:1029100000E011460A688242FBD34B685C1884428F
:1029200003D1406818444860084643681C18944224
:1029300009D1084C183C2468A24209D052681A44B4
:1029400042600A6812680260814200D0086030BDAF
:102950000460F9E79400002070B5002441600B4D3D
:102960000061914206D8D11A8269914206D2011DB6
:10297000286907E09A4203D2994201D3012403E077
:10298000011DE86800F04DFA204670BD6800002087
:1029900010B5044600F05EFAA06B28B15FF00004A9
:1029A00000F066FA204610BD0124F9E770B506462E
:1029B0000D480D46C068C068C468201D00F010FABC
:1029C00094F82400410705D52A463146204600F0F8
:1029D000B5F803E020F0010084F824002046216AC5
:1029E000BDE87040084700006800002070B586B060
:1029F000364E61E00098002806DADDE90201019A0E
:102A000090470098002857DB029C606910B1201D98
:102A100000F0E6F904A800F0B3F8054600980A288B
:102A20004AD2DFE800F0490505282E3D0505282E8D
:102A300094F824002A4640F0010084F8240001980C
:102A4000A169034601442046FFF786FF38B394F896
:102A50002400410707D50198A1692A460144204670
:102A600000F06CF803E020F0010084F82400216AF3
:102A70002046884720E014F8240F20F00100207041
:102A80001AE094F824002B4640F0010084F824005A
:102A90000198A06141191A462046FFF75DFF0BE03F
:102AA00094F82400810703D4204600F0EBF903E0FA
:102AB00020F0010084F8240000226946306800F00C
:102AC00057FD002896D106B070BD000068000020B8
:102AD000F8B50D46064600F0FFFB684600F050F8DA
:102AE0000446009810B101F095F8F8BD1148ADB159
:102AF00001690968D9B10025311B2A46006800F038
:102B00000DFA01F087F80028EFD10B494FF0805003
:102B10000860BFF34F8FBFF36F8FF8BDA642EBD8AD
:102B200001F078F821463046FFF740FFF8BD012557
:102B3000E2E700006800002004ED00E070B51646F2
:102B40000C46054604E0A869296A044428468847DB
:102B5000A8692346011932462846FFF7FDFE0028E2
:102B6000F1D170BD0548816B096821B1816BC968DD
:102B70000968816270474FF0FF31FAE728000020B2
:102B80002DE9F041064600F0D1FE0E4C0546A06846
:102B9000854214D24FF0FF3704E0C0683946006820
:102BA000FFF704FFE06801680029F6D12169C4E954
:102BB0000310012030602846A560BDE8F0810020A8
:102BC000F8E7000068000020BF2080F31188BFF301
:102BD0004F8FBFF36F8FFEE7074CE068016841B18C
:102BE000C0680021D0F80000FFF772FFFFF7FEFE7B
:102BF000F3E701210020F7E7680000202DE9F0410C
:102C0000044600F027F994F9455004F1240609E040
:102C1000606A48B1304600F09BFF08B100F0B6FA98
:102C20006D1E6DB2002DF3DC4FF0FF3684F8456069
:102C300000F01EF900F00EF994F9445004F1100769
:102C400009E0206948B1384600F082FF08B100F081
:102C50009DFA6D1E6DB2002DF3DC84F84460BDE872
:102C6000F04100F005B900002DE9F04105460027CC
:102C700000F032FB274E306808B9FFF7B1FD7069EC
:102C8000054241D1F5B305F10804AC423CD96007D7
:102C900007D004F00700C0F108002044A04233D957
:102CA00004467CB3706884422ED81A481830014616
:102CB0000D6801E028460D466968A14202D22968E4
:102CC0000029F7D131688D421ED00768296801605C
:102CD00068680837011B102904D9281941606C6005
:102CE000FFF714FE69687068401A7060B26890421D
:102CF00000D2B060706901430020C5E90001F068AE
:102D0000401C00E000E0F06000F084FF3846BDE8C1
:102D1000F08100007C0000200449086818B10868B0
:102D2000826C521C826408687047000028000020F2
:102D300010B5031F4FF080741C601B1F21F00101B0
:102D40001960191F044B0B6014390A60091F6FF0DA
:102D5000020244380A6010BDC92B00082DE9F04179
:102D600016460F46044600F075F81B4D286800EB28
:102D70008400C06C88B929680120214481F8500082
:102D80005EB101213046FFF7FDFB14494FF0805042
:102D90000860BFF34F8FBFF36F8F00F069F800F04A
:102DA00059F8286800EB8400C66C002056B127B1A2
:102DB000296801EB8401C86404E02A68711E02EBF3
:102DC0008402D1642968214481F8500000F050F851
:102DD0003046BDE8F08100002800002004ED00E04E
:102DE000D0E9013201699A60D0E901235A604A684A
:102DF000824201D182684A60002202610868401E56
:102E000008600868704700F108014FF0FF32C0E920
:102E10000112C16001610021016070470021016160
:102E2000704730B50B685A1C02D000F1080202E06E
:102E3000026904E02246546825689D42FAD9536825
:102E40004B6099608A60516008610168491C0160AB
:102E500030BD0000BF2080F31188BFF34F8FBFF358
:102E60006F8F02480168491C016070479C00002078
:102E700003490868401E086001D180F3118870473B
:102E80009C00002070B500281BD00E4DA0F1080456
:102E900061686869014214D02268002A11D1814317
:102EA000616000F019FA606869680844686020464B
:102EB000FFF72CFD2869401C2861BDE8704000F038
:102EC000A9BE70BD7C0000204FF0E0200021016110
:102ED0008161024941610721016170473F19010089
:102EE00070B50022002915D00B4C002304EBC3055C
:102EF0006E68864202D104EBC30207E01AB954F8A7
:102F0000336006B92A465B1C0A2BEFD3002A01D096
:102F1000C2E9001070BD00000C05002070B5154618
:102F20000E460446FFF796FF94F944100020491C12
:102F300001D184F8440094F94510491C01D184F86A
:102F40004500FFF795FFA06B28B92A46314604F1EA
:102F5000240000F031F92046BDE87040FFF74EBE76
:102F600086B04FF0904601213046FDF739FD01282B
:102F70002FD1FDF73FFD194C142219A1606101A862
:102F8000FDF736FB4FF0FF352946206900F068FB5E
:102F90004FF4FA73112201A91648FEF7ADFE002383
:102FA0001A461946206900F067FA00230A2204F144
:102FB0001401E06800F060FA00200246014600902B
:102FC0000223606800F038FC2A4601210020FFF748
:102FD000C5FE0A2000F0BAF8C5E700000000002096
:102FE000425554544F4E2050524553532121210AEB
:102FF00000000000500100201E4C1F4F86B04FF013
:1030000000084FF0FF354FF4FA794FF480764FF413
:103010007A7A2A4601210020FFF7A0FE17A30DF1BE
:10302000040C0FCB8CE80F002946206900F018FB38
:103030004B460F2201A91548FEF75EFE00231A46F3
:103040001946206900F018FA0022CDF8008002230A
:103050001146206800F0F0FB012231463846FDF7AA
:10306000C4FC504600F072F8002231463846FDF7A5
:10307000BCFCCEE7000000200010004876546173CD
:103080006B436F64655F54574F0A00005001002086
:1030900086B00025214C6E1E4FF4FA770595642208
:1030A00005A9E06800F064FA05981DA14200684691
:1030B000FDF7B6F9059890B13146206900F0D0FAD5
:1030C0006846FDF731FA82B23B4669461848FEF77A
:1030D00013FE00231A461946206900F0CDF9FDF7CA
:1030E00089FC024613A16846FDF79AF9314620692A
:1030F00000F0B6FA6846FDF717FA82B23B46694619
:103100000B48FEF7F9FD00231A461946206900F026
:10311000B3F9642000F01AF8C0E7000000000020B6
:10312000785175657565203D2025640A0000000012
:1031300050010020765461736B436F64655F5541A5
:103140005254203D2025640A0000000010B5020002
:1031500009D000F0C1F800211046FFF713FA00F083
:1031600059FD002807D104494FF080500860BFF393
:103170004F8FBFF36F8F10BD04ED00E002490A6A64
:103180000260C968416070472800002001490120A1
:10319000C86170472800002010B50C460549096831
:1031A0001831FFF73EFE2046BDE810400121FFF731
:1031B000E9B9000028000020F0B40C460D4943682E
:1031C0000D68EB619D680E6835620D689E68183564
:1031D00075600D6818359D60096888620168491C32
:1031E00001600AB14FF0FF342046F0BC1146FFF7F2
:1031F000C9B900002800002070B504003BD0606C05
:10320000884200D30146E06A884234D0A26C012A89
:1032100031D1E162A269002A02DBC1F10501A1619D
:10322000154D00EB8000616905EB8000814222D1E1
:10323000201DFFF7D5FD1149E06A0A69904200D9C7
:10324000086100EB800005EB80004068A0608168A9
:10325000E1608268211D51608160E06A00EB8000BE
:1032600005EB80006061E06A00EB800055F82010FB
:10327000491C45F8201070BD5C0500202800002086
:103280007CB511480025CDE900502B4680220FA1C6
:10329000104800F0A5FA0C4C2C3C012812D100F08B
:1032A00043FD01280ED1BF2080F31188BFF34F8F5B
:1032B000BFF36F8F4FF0FF30A06201206061E560C7
:1032C00000F03AF8206B7CBD5400002049444C4586
:1032D000000000002D2800080248416B491C416392
:1032E0007047000028000020114810B5416B11B153
:1032F0000121C16110BD0021C16102690D4900E0D9
:10330000521E02EB820351F82330002BF8D002EB5F
:10331000820301EB830101F108044B685B684B6099
:10332000A34201D15B684B60D9680160026110BDA6
:10333000280000205C0500200C4810B5016841F40D
:103340007F010160016841F07F410160FFF7BCFD32
:10335000074900200860FCF78FFF0648016841F02C
:1033600040410160FCF774FF002010BD20ED00E03B
:103370009C00002034EF00E010B50246002101203F
:1033800000F00CF8041E07D00021816001600B469C
:103390000A46C16000F070F8204610BD70B50E46B8
:1033A00005004FF0000418D0601EB0FBF5F0B042ED
:1033B00013D305FB06F010F1490F0ED84830FFF784
:1033C00053FC040009D004F1480120463EB10160DD
:1033D000C0E90F56012100F005F8204670BD0060DD
:1033E000F6E700002DE9F0410F4604004FF001061A
:1033F0003CD0E06BC8B3B51EB5FBF0F1206C814248
:1034000034D3FFF727FDD4E90F20216802FB001118
:10341000A1600021A163216861600A46D4E90F011F
:10342000401E00FB01212046E16000F8445F45702A
:1034300004F110004FB1FFF7E6FC04F12400FFF7A0
:10344000E2FC00BFFFF714FD11E021690029F9D06B
:1034500000F07EFB0028F5D006494FF08050086050
:10346000BFF34F8FBFF36F8FECE7FFE700263046C7
:10347000BDE8F08104ED00E02DE9FF4700273B4E59
:1034800082B099468A460446B8464FF0805500BF40
:10349000FFF7E0FCA06BE16B884206D3B9F1020FA5
:1034A00003D00498C0B1D7B11DE04A46514620462A
:1034B000FFF755F9616A19B104F1240000F048FBE7
:1034C00020B13560BFF34F8FBFF36F8FFFF7D0FC94
:1034D000012006B0BDE8F087FFF7CAFC21E068468E
:1034E000FFF74CFE0127FFF7C3FCFFF7F5FEFFF7E0
:1034F000B1FC94F94400401C01D184F8448094F953
:103500004500401C01D184F84580FFF7B1FC04A9B7
:10351000684600F039F930B12046FFF76FFB00F044
:1035200079FB0020D5E7FFF795FCA06BE16B8842A3
:1035300013D1FFF79DFC04F110000499FFF72CFE56
:103540002046FFF75BFB00F065FB0028A0D135604B
:10355000BFF34F8FBFF36F8F9AE7FFF789FC2046C9
:10356000FFF74CFB00F056FB92E7000004ED00E093
:103570002DE9F7470026DFF8E48083B08A46044649
:10358000B1464FF0805700BFFFF764FCA56BC5B193
:1035900051462046FFF7D0F86D1EA563206950B153
:1035A00004F1100000F0D4FA28B1C8F80070BFF39D
:1035B0004F8FBFF36F8FFFF75BFC012006B0BDE8B4
:1035C000F087059808B11EB106E0FFF751FC27E02F
:1035D0006846FFF7D3FD0126FFF74AFCFFF77CFEA4
:1035E000FFF738FC94F94400401C01D184F8449062
:1035F00094F94500401C01D184F84590FFF738FC50
:1036000005A9684600F0C0F8002820460AD0FFF758
:10361000F5FA00F0FFFA2046FFF7BAF90028B3D018
:103620000020CBE7FFF7B4F990B104F1240005992D
:10363000FFF7B2FD2046FFF7E1FA00F0EBFA0028B1
:10364000A2D1C8F80070BFF34F8FBFF36F8F9BE715
:103650002046FFF7D3FA00F0DDFA95E704ED00E02D
:103660002DE9F3430026DFF81C8183B0044635467C
:10367000B1464FF0805700BFFFF7ECFBA06BC8B11D
:10368000401EA063206810B9FFF746FBA0602069C8
:1036900050B104F1100000F05BFA28B1C8F80070D6
:1036A000BFF34F8FBFF36F8FFFF7E2FB012005B031
:1036B000BDE8F083049808B11EB106E0FFF7D8FB1F
:1036C0005EE06846FFF75AFD0126FFF7D1FBFFF7E2
:1036D00003FEFFF7BFFB94F94400401C01D184F8BE
:1036E000449094F94500401C01D184F84590FFF7BF
:1036F000BFFB04A9684600F047F80028204612D016
:10370000FFF77CFA00F086FA2046FFF741F900281F
:10371000B2D075B3FFF79EFB606A58B3206B0068A8
:10372000C0F1050128E0FFF733F9E0B1206838B9AE
:10373000FFF790FBA06800F0BBF90546FFF798FB88
:1037400004F124000499FFF727FD2046FFF756FAFD
:1037500000F060FA00288FD1C8F80070BFF34F8FD7
:10376000BFF36F8F88E72046FFF748FA00F052FA60
:1037700082E705E0FFE70021A068FFF73DFD9DE738
:10378000002094E704ED00E02DE9F0410C460546E9
:10379000FFF760FB114EF2686B682168D01A4F1C6E
:1037A0000AD02F68D6F820C00026674506D093427D
:1037B00004D8012526600BE0002509E0814205D9E7
:1037C000081A20602846FFF7D9FCF5E70125266096
:1037D000FFF74EFB2846BDE8F081000028000020DE
:1037E0002DE9FF5F8346DDE90E87994616468A4636
:1037F0009000FFF739FA05001AD05420FFF734FA89
:10380000040012D025630021CDE90241CDE90087F3
:103810004B46324651465846FFF738F82046FEF7E9
:10382000EDFE012004B0BDE8F09F2846FFF72AFB1B
:103830004FF0FF30F6E700002DE9F04799461546B6
:103840000F4604460126DDF82080FFF703FB04EB5A
:103850008700B8F1000F02D0C26CC8F80020E2194E
:1038600012F8501F02231370B9F1050F0ED2DFE8D2
:1038700009F00D03060C0A00C26C2A4301E0C26C79
:10388000521CC26402E0022903D0C564012902D09F
:1038900040E000263EE0D4E9022061699060D4E96E
:1038A000020250604A68201D824201D1E2684A60EB
:1038B000002262610A68521E0A60194BE16A1A69A5
:1038C000914200D91961174A01EB810102EB810194
:1038D0004968A1608D68E5608D6868608860E06A0D
:1038E00000EB800002EB80006061E06A00EB80008A
:1038F00052F82010491C42F82010E06A1968C96A81
:10390000884207D908494FF080500860BFF34F8FB5
:10391000BFF36F8FFFF7ACFA3046BDE8F0870000C9
:10392000280000205C05002004ED00E00148C0688C
:1039300070470000280000202DE9F0413B4C002694
:10394000606B28B1A069401CA0613046BDE8F081E1
:10395000E5686D1CE56008D1A06BE16BA163E063D5
:10396000206A401C2062FFF7FDF8A06A85420BD355
:103970004FF0000CA06B006858B1A06BC068C16824
:103980004868854208D2A062E0690028DDD001269F
:10399000DBE74FF0FF30F6E7D1E9023248699A6081
:1039A000D1E902235A6043680A1D934201D1CB68D2
:1039B0004360C1F814C003685B1E0360886A88B165
:1039C000D1E907379F60D1E907377B60476801F18C
:1039D00018039F4201D10B6A4360C1F828C00368F5
:1039E0005B1E0360C86A2369984200D92061104BAE
:1039F00000EB800003EB8000406888608768CF6040
:103A000087687A608260C86A00EB800003EB8002FE
:103A10004A6153F82020521C43F82020C86A2168CC
:103A2000C96A8842A6D30126A4E700002800002026
:103A30005C05002010B504004FF0000131D0A06CEF
:103A4000401EA064636CE26A9A422AD048BB201DE3
:103A5000FFF7C6F9606CE062C0F105001249A06191
:103A6000E06A0A69904200D90861104900EB8000C1
:103A700001EB80004068A0608268E2608368221DDC
:103A80005A608260E06A00EB800001EB80006061B8
:103A9000E06A00EB800051F82020521C41F8202001
:103AA0000121084610BD0000280000205C05002010
:103AB00070B504004FF000003ED0234DE16A2A6843
:103AC000D26A914239D2A069002804DB2868C06A12
:103AD000C0F10500A0611D4E01EB8101606906EB9C
:103AE0008101884224D1201DFFF77AF92868C06A35
:103AF000E0622969884200D9286100EB800006EB6A
:103B000080004068A0608168E1608268211D51608A
:103B10008160E06A00EB800006EB80006061E06A93
:103B200000EB800056F82010491C46F8201002E0F7
:103B30002868C06AE062012070BD616C2A68D26AA0
:103B40009142F8D370BD0000280000205C050020E1
:103B500030B5C068C06800F11804D0E90732816A46
:103B60009A60D0E907235A604A68A24201D1026AEA
:103B70004A60002585620A68521E0A6023494A6B22
:103B80009AB1234A5368C3619D6805629D686C6061
:103B90009C60826213685B1C1360C06A0A68D26A08
:103BA000904231D90120C86130BDD0E90242436959
:103BB000A260D0E9022462605C68021D944201D1D7
:103BC000C4685C6045611C68641E1C60C36A0C6943
:103BD000A34200D90B6103EB83040D4B8C3B03EB39
:103BE000840464688460A568C560A5686A60A26092
:103BF000C26A02EB820203EB8204446153F8224062
:103C0000641C43F82240C8E7002030BD2800002093
:103C1000E80500202DE9F04100242746FFF71AF9B6
:103C20003E4D686B401E6863686B002870D1A868C1
:103C30003B4A00264FF00108E8BB69E0D068C46841
:103C4000D4E90731A06A9960D4E907135960436841
:103C500004F118018B4201D1216A4160A66201681A
:103C6000491E0160D4E9023160699960D4E9021308
:103C700059604368211D8B4201D1E368436066614E
:103C800003685B1E0360E06A2B69984200D92861D3
:103C9000234B00EB80008C3B03EB80004068A0606E
:103CA000D0F808C0C4F80CC0D0F808C0CCF8041094
:103CB0008160E06A00E010E000EB800003EB80012F
:103CC000616153F82010491C43F82010E06A29680C
:103CD000C96A884201D3C5F81C8010680028ADD19C
:103CE0000CB1FEF73FFFAC6944B100BFFFF724FE03
:103CF00008B1C5F81C80641EF8D1AE61E86938B11E
:103D00000849012738070860BFF34F8FBFF36F8F53
:103D1000FFF7AEF83846BDE8F0810000280000202B
:103D2000E805002004ED00E01CB50024FEF7DCFCF3
:103D30000848006858B107490320091DCDE9000172
:103D40000023802204A10648FFF74AFD04462046CE
:103D50001CBD000068000020546D72205376630083
:103D6000D92B00084FF04070E1EE100A70470203B3
:103D70000405060708090A0B0C0D0E0F10100102AE
:103D8000030405060708090A0B0C0D0E0F100000AE
:103D900000000000000001020304060708090000FB
:103DA0000000010203040000C83D000800000020DC
:103DB000A0000000C4010008683E0008A000002028
:103DC000105A0000E00100080000000000000000A0
:103DD00000000000000000000000000000000000E3
:103DE00001000000100000000000000000127A0036
:103DF00000000000000000000000000000000000C3
:103E000000000000000000000000000000000000B2
:103E100000000000000000000000000000000000A2
:103E2000040000000000000000000000000000008E
:103E30000000000000000000000000000000000082
:103E40000000000000000000000000000000000072
:103E50000000000000000000000000000000000062
:083E600000000000AAAAAAAAB2
:040000050800018965
:00000001FF
