:020000040800F2
:100000005059002061020008E31800088B1700080F
:10001000E118000891030008851A0008000000009C
:10002000000000000000000000000000A101000826
:100030009303000800000000FD010008E518000817
:100040007B0200087B0200087B0200087B0200089C
:100050007B0200087B0200087B0200087B0200088C
:100060007B0200087B0200087B0200087B0200087C
:100070007B0200087B0200087B0200087B0200086C
:100080007B0200087B0200087B0200087B0200085C
:100090007B0200087B0200087B0200087B0200084C
:1000A0007B0200087B0200087B0200087B0200083C
:1000B0007B020008A91900087B0200087B020008E7
:1000C0007B0200087B0200087B0200087B0200081C
:1000D0007B0200087B0200087B0200087B0200080C
:1000E0007B0200087B0200087B0200087B020008FC
:1000F0007B0200087B0200087B0200087B020008EC
:100100000000000000000000000000007B0200086A
:100110007B0200087B0200087B0200087B020008CB
:100120007B0200087B0200087B0200087B020008BB
:100130007B0200087B0200080000000000000000B5
:100140007B0200087B0200087B0200080000000020
:10015000000000000000000000000000000000009F
:1001600000000000000000007B0200087B02000885
:100170007B020008000000000000000000000000FA
:10018000000000007B020008DFF810D000F0EEF85D
:1001900000480047ED1A0008AFF3008050590020D6
:1001A0002C4B19680868B0E8F04F80F30988BFF35A
:1001B0006F8F4FF0000080F311887047000000003F
:1001C00008480068006880F308884FF0000080F35A
:1001D000148862B661B6BFF34F8FBFF36F8F00DF35
:1001E00000BF00BF08ED00E0DFF80C00016841F43B
:1001F00070010160704700BF88ED00E0EFF30980F7
:10020000BFF36F8F134B1A681EF0100F08BF20ED5D
:10021000108A20E9F04F106009B44FF0BF0080F35E
:100220001188BFF34F8FBFF36F8F02F01FFA4FF0AB
:10023000000080F3118809BC19680868B0E8F04F25
:100240001EF0100F08BFB0EC108A80F30988BFF3CE
:100250006F8F704718000020EFF305807047000093
:100260000648804706480047FEE7FEE7FEE7FEE750
:10027000FEE7FEE7FEE7FEE7FEE7FEE79919000866
:10028000890100082DE9F05F0546002092469B4653
:1002900088460646814640241BE02846414647469C
:1002A000224600F020F853465A46C01A914110D316
:1002B00011461846224600F04AF82D1A67EB01084D
:1002C0004F4622460120002100F041F817EB0009BB
:1002D0004E41201EA4F10104DFDC484631462A4687
:1002E0004346BDE8F09F202A04DB203A21FA02F0C1
:1002F0000021704721FA02F3D040C2F12002914060
:1003000008431946704740EA01039B0703D009E000
:1003100008C9121F08C0042AFAD203E011F8013BF1
:1003200000F8013B521EF9D27047D2B201E000F84A
:10033000012B491EFBD270470022F6E710B5134689
:100340000A4604461946FFF7F0FF204610BD202A52
:1003500004DB203A00FA02F1002070479140C2F11C
:10036000200320FA03F3194390407047064C074DD1
:1003700006E0E06840F0010394E807009847103475
:10038000AC42F6D3FFF704FFFC2C00081C2D00083C
:10039000FEE770472DE9F04FDFF8AC91002309F13B
:1003A000040A03250AF1040B85B04FF0010C0F2756
:1003B0000BF1040EBFE000BF0CFA03F6324075D01B
:1003C0000C7904F00304012C01D0022C1BD18468A9
:1003D00000945C0005FA04F80494009C24EA0804E4
:1003E0000094D1F80C80049C08FA04F8009C48EAB8
:1003F0000408C0F808804468B4430E79C6F30016B8
:100400009E40264346600C79E443A4070AD0C468A2
:100410004FEA430805FA08F6B4438E6806FA08F670
:100420002643C6600C7904F00304022C10D1DC08CA
:1004300000EB84040294246A5E074FEAD66807FA48
:1004400008F6B4430E6906FA08F62643029C2662B3
:1004500004684FEA430805FA08F6B4430E7906F03B
:10046000030606FA08F6264306604C6814F4403F7B
:1004700060D0364CA66946F00106A661A46923F057
:10048000030604F001040094314C34440294A4683F
:100490009E074FEA167807FA08F6B443B0F1904F7A
:1004A00005D02C4EB04204D1012612E042E00026D5
:1004B0000FE0294EB04201D102260AE0274EB04299
:1004C00001D1032605E0264EB04201D1042600E00A
:1004D000052606FA08F62643029CA660D9F80060B5
:1004E0004C46D1F8048096435FEAC83800D51643DD
:1004F0002660DAF800405646D1F8048094435FEA5B
:10050000883800D514433460DBF800405E46D1F8EB
:10051000048094435FEAC82800D514433460DEF8B1
:1005200000407646D1F8048094435FEA882800D5DD
:10053000144334605B1C0A6832FA03F47FF43CAF66
:1005400005B0BDE8F08F000000040140001002403B
:10055000000001400004004800080048000C00486A
:1005600000100048426921EA02030A4043EA0241BE
:10057000816170470AB181617047816270470000F4
:1005800001488068704700000800002090F8412072
:10059000202A24D190F84020012A20D0012280F87E
:1005A0004020242280F841200268136823F00103D0
:1005B00013600268136823F48053136002681368A1
:1005C0000B43136001680A6842F001020A602021AF
:1005D00080F84110002180F8401008467047022042
:1005E000704790F84120202A22D190F84020012A1B
:1005F0001ED0012280F84020242280F84120026889
:10060000136823F0010313600268136823F4706316
:1006100043EA0121116001680A6842F001020A60A0
:10062000202180F84110002180F8401008467047D2
:100630000220704770B5040004D094F841000025F2
:1006400010B106E0012070BD84F84050204600F053
:100650004DF8242084F841002068016821F0010150
:1006600001606068216820F070600861206881681E
:1006700021F400418160E0680128A06807D040F4BF
:10068000044021688860E068022803D006E040F456
:100690000040F6E721684FF4006048602068416838
:1006A000114A114341602068C16821F40041C160D2
:1006B000D4E904010843A16940EA01202168C86027
:1006C000D4E907010843216808602068016841F007
:1006D000010101606564202084F84100256384F8ED
:1006E0004250002070BD00000080000210B586B0AE
:1006F000044614216846FFF71FFE1249206888420D
:100700001ED1114C606940F48020606160696946C7
:1007100000F480200590C02000901220019001205C
:10072000029003200390042004900848FFF732FE53
:10073000E06940F40010E061E06900F40010059009
:1007400006B010BD005400400010024000040048F4
:1007500002488168027811448160704708000020D7
:10076000074810B5016841F010010160032000F056
:1007700087F8002000F006F800F03EF8002010BDD9
:100780000020024000B5014687B000221D2000F085
:1007900057F81D2000F046F81348C16941F00201E6
:1007A000C161C06905A900F002000690684600F02A
:1007B000AFFA00F0CDFA0D494000B0FBF1F10D4861
:1007C0000B4A491E0260416040F2E7320021C0E955
:1007D0000321816000F099FE10B1012007B000BD37
:1007E000044800F0C5FEF9E70010024040420F0047
:1007F00000040040D00A0020094808B5816941F092
:1008000001018161816901F001010091C16941F03B
:100810008051C161C06900F08050009008BD0000A7
:1008200000100240002809DB00F01F020121914066
:100830004009800000F1E020C0F80011704700007E
:10084000F0B40E4B1B680C46C3F30223C3F107053B
:10085000042D00D90425191D072901D2002300E029
:10086000DB1E012606FA05F1491E214099409E40F3
:10087000761E16403143F0BC01F005B90CED00E0E6
:10088000064900F0070208684FF6FF03184040EAE7
:100890000220034A10430860704700000CED00E09E
:1008A0000000FA0570B586B0040004D094F8A902DF
:1008B000002518B107E0012006B070BD84F8A852E9
:1008C000204600F043F8032084F8A902206801F0D4
:1008D000D2F8002001260EE000EB800104EBC101FC
:1008E00081F8296001F8280FC881CD700D614D6134
:1008F000401CC0B28D6161688142EDD8002011E0DA
:1009000000EB800104EBC10181F8695181F86801B5
:1009100081F86B51C1F87851C1F87C51401CC0B2CC
:10092000C1F8805161688142EAD8142204F11001B3
:100930006846FFF7E8FC94E80F0001F093F884F8AC
:10094000245084F8A9620020B6E7000010B586B0F4
:10095000044614216846FFF7EFFC134920688842DB
:1009600020D1124C606940F40030606160696946D2
:1009700000F4003005904FF4C05000900220019028
:1009800000200290032003900E2004904FF090402E
:10099000FFF700FDE06940F40000E061E06900F469
:1009A0000000059006B010BD005C00400010024041
:1009B0002DE9F84F044600680026804DC0036ED52F
:1009C000E869C00008D4E86940F08050E861E8694F
:1009D000012600F08050009079480168C90512D4C2
:1009E0000168804641F480710160FFF7C9FD074648
:1009F00005E000BFFFF7C4FDC01B642835D8D8F858
:100A00000000C005F6D5286A10F4407053D0A188C4
:100A100001F4407181424ED0286A4FF4803191FA3E
:100A2000A1F2B2FA82F29700664A4FF00108174429
:100A300020F44070C7F8008491FAA1F1B1FA81F175
:100A400002EB81010023C1F800342862C00732D0D4
:100A5000FFF796FD074641F2883A4FF0020907E09A
:100A6000FFF78EFDC11B514502D90320BDE8F88F69
:100A700099FAA9F0B0FA80F040F040024946B8EB8C
:100A8000521F01D12A680CE091FAA1F2B2FA82F267
:100A900042F04002B1EB521F02D12A6A01E015E098
:100AA0006A6A99FAA9F1B1FA81F101F01F0108FA15
:100AB00001F00242D4D0286A616820F440700843F3
:100AC00028621EB1E86920F08050E8612078C007F4
:100AD00005D0286BA16820F0030008432863207824
:100AE000800705D5286BE16820F44030084328636F
:100AF0002078400705D5286B216920F44020084361
:100B000028632078800605D5286BE16920F0100065
:100B1000084328632068800305D56868A16B20F42A
:100B20008000084368602078400605D5286B216A5C
:100B300020F02000084328632078000705D5286BA3
:100B4000616920F44010084328632078C00605D569
:100B5000286BA16920F440000843286320888005A1
:100B600005D56868E16A20F40000084368602078D1
:100B7000000605D5E86A616A20F4F8700843E86267
:100B80002088C00505D5E86AA16A20F4785008439A
:100B9000E8622088C00405D5286B216B20F48070A2
:100BA000084328632088800405D5286B616B20F4F6
:100BB000007008432863002058E70000001002403E
:100BC00000700040000042422DE9F0470F4605004A
:100BD00069D04A4E306800F00700B84209D2306848
:100BE00020F0070038433060306800F00700B8425A
:100BF00059D12878424C800705D56068A96820F053
:100C0000F000084360602878C0073DD06968012083
:100C100001290DD0022923D05FF0020393FAA3F239
:100C2000B2FA82F242F02002520904D0226803E0B4
:100C30004FF40033F2E7626A93FAA3F3B3FA83F353
:100C400003F01F03984002422DD0606820F003009B
:100C500008436060FFF794FC804641F288390CE05D
:100C60004FF00073DAE700BFFFF78AFCA0EB080142
:100C7000494502D90320BDE8F0876068696800F043
:100C80000C00B0EB810FEFD1306800F00700B842E4
:100C90000BD9306820F0070038433060306800F02E
:100CA0000700B84201D00120E5E72878400705D5C4
:100CB0006068E96820F4E060084360602878000715
:100CC00006D56068296920F4605040EAC100606080
:100CD00000F056F86168F02292FAA2F201F0F001F9
:100CE000B2FA82F2D140074A515CC8400649086016
:100CF00006480068FFF746FD0020BCE700200240E0
:100D000000100240E42C0008140000200C00002019
:100D10000F2202600C4A536803F0030343605368D8
:100D200003F0F0038360536803F4E063C360526828
:100D30004FF4E06303EAD20202610448006800F065
:100D400007000860704700000010024000200240C9
:100D500008480949006849684FF4E06292FAA2F233
:100D600001F4E061B2FA82F2D140044A515CC84019
:100D7000704700001400002000100240F42C00080E
:100D8000164A10B55168164801F00C03042B20D008
:100D9000082B1ED14FF4701494FAA4F401F47013CC
:100DA000B4FA84F4E3400F4CD26AE45C0F2393FA64
:100DB000A3F302F00F02B3FA83F3DA40094B1033C6
:100DC000C9039A5C06D500231946FFF75BFAA0FB1E
:100DD000040110BD0448A4FB000110BD0010024036
:100DE00000127A00C42C000800093D002DE9F84FDC
:100DF000050071D02878FC4EC0074FF0010425D0C3
:100E000070686704C0F38100012807D07068C0F3E0
:100E1000810002281BD17068C00318D597FAA7F08B
:100E2000B0FA80F040F02000400901D0306800E0C6
:100E3000706A97FAA7F1B1FA81F101F01F0104FA83
:100E400001F1084265D068680028D2D061E0686886
:100E5000B0F5803F0BD010B1B0F5A02F17D030689F
:100E600020F480303060306820F4802002E0306868
:100E700040F480303060F06AA96820F00F00084329
:100E8000F062686820B3FFF77BFB80460AE03068B9
:100E900040F480203060EAE7FFF772FBA0EB080027
:100EA000642871D897FAA7F0B0FA80F040F02000DB
:100EB000400901D0306800E0706A97FAA7F1B1FAF2
:100EC00081F101F01F0104FA01F10842E4D020E0B1
:100ED000FFF756FB804607E0C2E000BFFFF750FB7C
:100EE000A0EB08006428DCD897FAA7F0B0FA80F0ED
:100EF00040F02000400901D0306800E0706A97FAA5
:100F0000A7F1B1FA81F101F01F0104FA01F10842E1
:100F1000E4D12878DFF8D48280074FF0000A4FF040
:100F2000020730D570684FF0F80B10F00C0F07D0A7
:100F30007068C0F38100022827D17068C00324D4F0
:100F400097FAA7F0B0FA80F040F02000400901D0F5
:100F5000306800E0706A97FAA7F1B1FA81F101F008
:100F60001F0104FA01F1084202D02869012877D153
:100F700030689BFAABF220F0F8016869B2FA82F2AD
:100F80009040014331605AE064E1286988B394FAE3
:100F9000A4F0B0FA80F048F82040FFF7F1FA81465B
:100FA00006E000BFFFF7ECFAA0EB090002289AD890
:100FB00097FAA7F0B0FA80F040F02000400901D085
:100FC000306800E0706A97FAA7F1B1FA81F101F098
:100FD0001F0104FA01F10842E4D030689BFAABF239
:100FE0006969B2FA82F220F0F8009140084330605B
:100FF00025E0FFE794FAA4F0B0FA80F048F820A0CA
:10100000FFF7BEFA814605E0FFF7BAFAA0EB090048
:101010000228CCD897FAA7F0B0FA80F040F0200070
:10102000400901D0306800E0706A97FAA7F1B1FA80
:1010300081F101F01F0104FA01F10842E4D128789E
:1010400000076CD5A869A8B394FAA4F0B0FA80F0B0
:1010500008EB8000C0F88044FFF792FA814607E071
:10106000A4E100BFFFF78CFAA0EB090002289ED88C
:1010700097FAA7F0B0FA80F040F06000B4EB501F90
:1010800001D130680BE097FAA7F0B0FA80F040F099
:101090006000B7EB501F01D1306A00E0706A97FA28
:1010A000A7F1B1FA81F101F01F0104FA01F2104237
:1010B000D8D034E0FFE794FAA4F1B1FA81F108EB5B
:1010C0008101C1F880A4FFF75BFA814606E000BF0A
:1010D000FFF756FAA0EB090002289AD897FAA7F072
:1010E000B0FA80F040F06000B4EB501F01D13068DE
:1010F0000BE097FAA7F0B0FA80F040F06000B7EB91
:10110000501F01D1306A00E0706A97FAA7F1B1FA76
:1011100081F101F01F0104FA01F21042D8D12878C0
:10112000400768D5F0694FF00009C00009D4F069A4
:1011300040F08050F061F0694FF0010900F08050FC
:1011400000902B480168C90512D4016841F48071F0
:101150000160FFF715FA834606E000BFFFF710FABB
:10116000A0EB0B00642875D821480068C005F5D5B0
:10117000E86801280AD008B1052811D0306A20F0AB
:1011800001003062306A20F0040002E0306A40F072
:1011900001003062E86868B3FFF7F2F983460DE0BA
:1011A000306A40F004003062F0E700BFFFF7E8F972
:1011B000A0EB0B0141F2883081424BD897FAA7F09F
:1011C000B0FA80F040F04000B4EB501F01D130681D
:1011D00013E097FAA7F0B0FA80F040F04000B7EBC8
:1011E000501F09D1306A08E000100240000042425E
:1011F000007000400CE040E0706A97FAA7F1B1FA85
:1012000081F101F01F0104FA01F21042CED02DE06D
:10121000FFF7B6F9834607E0FFF7B2F9A0EB0B0141
:1012200041F28830814215D897FAA7F0B0FA80F0E1
:1012300040F04000B4EB501F01D130680CE097FA49
:10124000A7F0B0FA80F040F04000B7EB501F02D199
:10125000306A01E083E0706A97FAA7F1B1FA81F190
:1012600001F01F0104FA01F21042D5D1B9F1000FCB
:1012700003D0F06920F08050F061E86980B37168B4
:10128000C1F38101022977D04FF080714F0002280D
:10129000504609D091FAA1F1B1FA81F148F8210044
:1012A000FFF76EF905465DE0894691FAA1F1B1FAC2
:1012B00081F1C24648F82100FFF762F9804605E057
:1012C000FFF75EF9A0EB0800022848D897FAA7F0CC
:1012D000B0FA80F040F02000400902D0306801E010
:1012E00066E0706A97FAA7F1B1FA81F101F01F0187
:1012F00004FA01F10842E3D1D5E908100843716806
:1013000021F474110843706099FAA9F0B0FA80F0E2
:101310004AF82040FFF734F9054604E0FFF730F9BA
:10132000401B02281BD897FAA7F0B0FA80F040F0D3
:101330002000400901D0306800E0706A97FAA7F1F8
:10134000B1FA81F101F01F0104FA01F10842E5D080
:101350002EE000BFFFF714F9401B022802D903203A
:10136000BDE8F88F97FAA7F0B0FA80F040F02000BF
:10137000400902D0306801E00BE0706A97FAA7F1EB
:10138000B1FA81F101F01F0104FA01F10842E1D143
:101390000EE00128E4D070682A6A00F4803191429E
:1013A00004D1696A00F47010884201D00120D7E7A7
:1013B0000020D5E770B5040009D0606A002540B16F
:1013C00025616561A56294F85D0040B10CE00120E3
:1013D00070BD6068B0F5827FF4D0E561F2E784F813
:1013E0005C50204600F05CF8022084F85D00206824
:1013F000016821F040010160E1684FF4E062914230
:1014000001D9002001E04FF48050B1F5706F02D097
:10141000914200D0A562A188228901F4827102F470
:1014200004421143227C02F002021143227D02F0A9
:1014300001021143228B02F400721143227F02F059
:101440003802114394F8202002F080021143228DCB
:1014500002F40052114322681160A169042202EAD9
:10146000114194F8242000F4805002F0100211433E
:1014700094F8342002F008021143A28902F4706249
:1014800011430143206841602068C16921F4006173
:10149000C1612566012084F85D00002070BD000058
:1014A00010B586B0044614216846FEF745FF13497F
:1014B000206888421FD11248816941F480518161BE
:1014C000816901F480510591416941F40031416124
:1014D0004069694600F400300590E0200090022049
:1014E00001900020029003200390052004904FF00B
:1014F0009040FEF74FFF06B010BD000000300140E5
:101500000010024070477047704710B5040003D0C8
:1015100094F83D0010B107E0012010BD002084F8D0
:101520003C00204600F022F8022084F83D00211DF6
:10153000206800F03FFA012084F8480084F83E005B
:1015400084F83F0084F8400084F8410084F84200A9
:1015500084F8430084F8440084F8450084F8460089
:1015600084F8470084F83D00002010BD704700005B
:1015700090F83D10012901D001207047022180F828
:101580003D100168CA6842F00102CA600068104953
:1015900088420ED0B0F1804F0BD00E49884208D05F
:1015A0000D49884205D00D49884202D00C49884235
:1015B00007D181680B4A1140062906D0B1F5803F5A
:1015C00003D0016841F00101016000207047000074
:1015D000002C01400004004000080040003401409D
:1015E0000040014007000100704770B504460068E4
:1015F00001694FF00005C943890715D4C168C94383
:10160000890711D4E91E01610120207720688069D3
:101610008007204602D0FFF7E7FF04E000F0A7F8BC
:10162000204600F0A5F8257720680169C9434907DD
:1016300017D4C168C943490713D46FF0040101618D
:10164000022020772068806910F4407F204602D075
:10165000FFF7CAFF04E000F08AF8204600F088F89F
:10166000257720680169C943090716D4C168C943B1
:10167000090712D46FF00801016104202077206867
:10168000C0698007204602D0FFF7AEFF04E000F0FB
:101690006EF8204600F06CF8257720680169C94390
:1016A000C90617D4C168C943C90613D46FF0100125
:1016B0000161082020772068C06910F4407F20462F
:1016C00002D0FFF791FF04E000F051F8204600F04F
:1016D0004FF8257720680169C943C90708D1C16857
:1016E000C943C90704D1891E0161204600F042F8B0
:1016F00020680169C943090609D4C168C9430906BC
:1017000005D46FF0800101612046FFF7FCFE2068E0
:101710000169C943C90509D4C168C943090605D48B
:101720006FF4807101612046FFF7ECFE20680169CB
:10173000C943490609D4C168C943490605D46FF0B5
:1017400040010161204600F01FF820680169C9438B
:1017500089060BD4C168C943890607D46FF02001FC
:1017600001612046BDE87040FFF7CEBE70BD7047F6
:101770007047000000680349884201D1FEF7E8BFC6
:1017800070470000000400407047FEE770B586B067
:1017900014216846FEF7D0FD2748416941F4001145
:1017A0004161416901F400110591416941F4002151
:1017B0004161416901F400210591416941F48001D1
:1017C0004161416901F480010591416941F40031B1
:1017D0004161416901F400310591416941F4802181
:1017E00041614069154E00F480204FF60875059060
:1017F000002229463046FEF7BDFE372000904FF408
:1018000090100024CDE9010469463046FEF7C2FD80
:1018100000950125CDE90154694630460394FEF751
:10182000B9FDCDE9005469464FF090400294FEF7AF
:10183000B1FD06B070BD000000100240001000486D
:10184000124810B510490160114941600021012280
:10185000C0E90212016141618161C1610162FEF76B
:10186000E9FE08B172B6FEE700210848FEF78EFED9
:1018700008B172B6FEE700210448FEF7B2FE002868
:1018800001D072B6FEE710BD0054004034070020BE
:101890000E090020114810B50F4901604FF4827104
:1018A000416000214FF44072C0E902124FF400720F
:1018B0000161C0E905120822C0E90721072341623E
:1018C000C0E90A13C0E90C12FFF774FD002801D02B
:1018D00072B6FEE710BD0000003001408007002016
:1018E000FEE7FEE710B5BF2080F31188BFF34F8FEE
:1018F000BFF36F8F01F052F818B104494FF08050D8
:101900000860002080F3118810BD000004ED00E0A5
:1019100030B59FB028216846FEF70EFD142119A8A6
:10192000FEF70AFD3C210AA8FEF706FD0320009001
:101930004FF4A0200024CDE90104012004901020E0
:10194000059002250003CDE907504FF4E0100990FF
:101950006846FFF74BFA08B172B6FEE70F20CDE9F3
:1019600019054FF48060CDE91B40022119A81D9490
:10197000FFF72AF908B172B6FEE706480A901194FB
:1019800018940AA8FFF714F8002801D072B6FEE7F1
:101990001FB030BD200002000248016841F4700110
:1019A0000160704788ED00E00148FFF71EBE0000AF
:1019B000D00A00202DE9F0430268234B234D244E2A
:1019C000244C4FF08049984207D0484505D0A842A2
:1019D00003D0B04201D0A04203D122F070074A6880
:1019E0003A431D4FDFF874C0DFF8748098420DD081
:1019F00048450BD0A84209D0B04207D0A04205D03C
:101A0000B84203D0604501D0404503D122F440756F
:101A1000CA682A434D6922F080022A4302608A681C
:101A2000C2620A688262984207D0A04205D0B842DA
:101A300003D0604501D0404501D10969016301210E
:101A40004161BDE8F0830000002C0140000400402B
:101A500000080040003401400040014000440140C3
:101A600000480140012120F8401F002101808180B1
:101A700001820846704730F8401F21F43F41018041
:101A800000207047FEE70907090E002804DB00F17B
:101A9000E02080F80014704700F00F0000F1E02013
:101AA00080F8141D704702E008C8121F08C1002A00
:101AB000FAD170477047002001E001C1121F002ACF
:101AC000FBD1704710B500224FF0A53308E000BFEE
:101AD00050F822409C4201D0002010BD521C92B20E
:101AE000B2EB510FF4D3012010BD00000EB5FEF78C
:101AF00037FEFFF70DFFFFF749FEFFF7A1FEFFF7E7
:101B0000C9FE1648144900240160082141600221E1
:101B10008160846104620161FEF7C4FE08B172B69F
:101B2000FEE70F48009400F15C01CDE901100023AD
:101B300064220CA10D4800F010FF0D4900234FF462
:101B4000C8720860081DCDE900400AA10B4800F0EA
:101B5000D7FE00F04DFDFEE7005C0040E4070020EA
:101B600048050020535441544943000025250008EE
:101B70000000002044594E414D494300052500080E
:101B80002DE9F0411A4C0F460546E6682068001D15
:101B900000F0CEFB681C15D1A7B116492268486831
:101BA000906023688268DA6022688368121D5A6038
:101BB0002268121D8260206841610868401C08602C
:101BC000BDE8F08120683544B5424560216805D202
:101BD000E06BBDE8F041091D00F0F6BBA06B091DEC
:101BE00000F0F2FBA06A8542EAD2A562E8E70000B5
:101BF00018000020200C00202DE9F041054600F0DF
:101C0000FBFB364CA068401CA0602068344F10B12C
:101C1000606940B32DE02560A068012829D1002625
:101C200006EB860007EB800000F0C0FB761C052E5B
:101C3000F6D32B48643000F0B9FB2948783000F027
:101C4000B5FB27488C3000F0B1FB2548A03000F0F0
:101C5000ADFB2348B43000F0A9FB21486430A063F9
:101C60001430E06305E02068E96AC06A884200D861
:101C70002560606A401C60626864E86A2169884285
:101C800000D9206100EB800007EB80004068A8606D
:101C90008168E9608268291D51608160E86A00EB13
:101CA000800007EB8001696157F82010491C47F854
:101CB000201000F0AFFB606900280CD02068E96AB2
:101CC000C06A884207D207494FF080500860BFF3CE
:101CD0004F8FBFF36F8FBDE8F08100001800002028
:101CE0006C0B002004ED00E038B500F085FB104CD3
:101CF0002068C8B90F4800F059FB0E48143000F0B6
:101D000055FB0C48E060143020610A4B0020F03B8A
:101D1000009003F1500210210A2000F0EFFC206037
:101D200010B105A100F0AEFBBDE8384000F072BB79
:101D300058000020240D0020546D72510000000056
:101D400030B4026C0B46002A0BD0C1681144C1604C
:101D50008468A14201D30168C16030BC1846FEF717
:101D6000D2BA30BC704710B5044690F8590030B173
:101D7000012808D12046BDE8104000F055BB206B7B
:101D800000F052FBF6E710BD10484FF488414207BF
:101D900006D0C01D0D4920F00700411AC1F5884149
:101DA0000B4A00230144C2E900030839183A21F024
:101DB000070111604B600B600B1AC0E900139360C0
:101DC0004FF0004053605061704700004C0D002000
:101DD00084000020154E164CA6F1A0074FF0805845
:101DE000DFF8509012E000BF00F006FBF068C56815
:101DF000281D00F09DFAA068401EA0606068401E8B
:101E0000606000F007FB2846FFF7ADFF6068002820
:101E1000EAD13868012805D9C9F80080BFF34F8F8F
:101E2000BFF36F8F00F0ACFAF0E700000C0C00205D
:101E30001800002004ED00E070B51D46049C51B16F
:101E4000C4F80020C4E90F010121204600F06AFC1B
:101E500084F84C5070BD2460F4E700002DE9F05F79
:101E60008846DDE90B941546834691009A460A9E02
:101E7000A522206BFEF759FA6FF0030101EB8501F3
:101E8000206B0025084420F00707B8F1000F0FD0A1
:101E90005FF00000221818F8001082F8341018F8CB
:101EA000001011B1401C1028F4D384F8435001E015
:101EB00084F83450052E00D30426E662C4E9136585
:101EC000201D00F07EFA04F1180000F07AFA246177
:101ED000C6F105006462A061656584F858505246F9
:101EE0005946384600F00EFA2060B9F1000F01D0D3
:101EF000C9F80040BDE8F09F30B5114900E0114637
:101F00000A688242FBD34B685C18844203D1406864
:101F100018444860084643681C18944209D1084C8C
:101F2000183C2468A24209D052681A4442600A68E8
:101F300012680260814200D0086030BD0460F9E799
:101F40008400002070B5002441600B4D0061914277
:101F500006D8D11A8269914206D2011D286907E08C
:101F60009A4203D2994201D3012403E0011DE8689B
:101F700000F02AFA204670BD5800002010B5044633
:101F800000F03AFAA06B28B15FF0000400F042FACA
:101F9000204610BD0124F9E770B506460D480D46F0
:101FA000C068C068C468201D00F0C2F994F8280019
:101FB000410705D52A463146204600F0B5F803E032
:101FC00020F0010084F828002046216ABDE8704016
:101FD000084700005800002070B586B0364E61E01A
:101FE0000098002806DADDE90201019A904700987E
:101FF000002857DB029C606910B1201D00F098F9A1
:1020000004A800F0B3F8054600980A284AD2DFE891
:1020100000F0490505282E3D0505282E94F82800D6
:102020002A4640F0010084F828000198A16903467F
:1020300001442046FFF786FF38B394F82800410793
:1020400007D50198A1692A460144204600F06CF8A2
:1020500003E020F0010084F82800216A2046884728
:1020600020E014F8280F20F0010020701AE094F806
:1020700028002B4640F0010084F828000198A06158
:1020800041191A462046FFF75DFF0BE094F828003F
:10209000810703D4204600F0C7F903E020F00100D7
:1020A00084F8280000226946306800F085FB00288B
:1020B00096D106B070BD000058000020F8B50D465E
:1020C000064600F0CBFA684600F050F80446009847
:1020D00010B100F043FDF8BD1148ADB101690968C8
:1020E000D9B10025311B2A46006800F0E9F900F05B
:1020F00035FD0028EFD10B494FF080500860BFF349
:102100004F8FBFF36F8FF8BDA642EBD800F026FDCE
:1021100021463046FFF740FFF8BD0125E2E7000009
:102120005800002004ED00E070B516460C46054648
:1021300004E0A869296A044428468847A869234618
:10214000011932462846FFF7FDFE0028F1D170BD87
:102150000548816B096821B1816BC9680968816292
:1021600070474FF0FF31FAE7180000202DE9F041E9
:10217000064600F00DFC0E4C0546A068854214D2C0
:102180004FF0FF3704E0C06839460068FFF704FFEE
:10219000E06801680029F6D12169C4E90310012033
:1021A00030602846A560BDE8F0810020F8E7000017
:1021B00058000020BF2080F31188BFF34F8FBFF37A
:1021C0006F8FFEE7074CE068016841B1C0680021ED
:1021D000D0F80000FFF772FFFFF7FEFEF3E70121E2
:1021E0000020F7E7580000202DE9F041044600F0F8
:1021F00003F994F9455004F1240609E0606A48B1F6
:10220000304600F049FC08B100F0BCF96D1E6DB21B
:10221000002DF3DC4FF0FF3684F8456000F0FAF84B
:1022200000F0EAF894F9445004F1100709E020693D
:1022300048B1384600F030FC08B100F0A3F96D1E3B
:102240006DB2002DF3DC84F84460BDE8F04100F08D
:10225000E1B800002DE9F0410546002700F0FEF945
:10226000274E306808B9FFF78FFD7069054241D1EC
:10227000F5B305F10804AC423CD9600707D004F07F
:102280000700C0F108002044A04233D904467CB3C3
:10229000706884422ED81A48183001460D6801E053
:1022A00028460D466968A14202D229680029F7D163
:1022B00031688D421ED00768296801606868083758
:1022C000011B102904D9281941606C60FFF714FE26
:1022D00069687068401A7060B268904200D2B0605D
:1022E000706901430020C5E90001F068401C00E06E
:1022F00000E0F06000F032FC3846BDE8F0810000FC
:102300006C00002010B5031F4FF080741C601B1F71
:1023100021F001011960191F044B0B6014390A6088
:10232000091F6FF0020244380A6010BDB521000891
:10233000D0E9013201699A60D0E901235A604A6804
:10234000824201D182684A60002202610868401E10
:102350000860086870470000034B036003F15C00ED
:10236000086080201060704790000020034B0360DD
:1023700003F15C000860802010607047EC020020D0
:1023800010B564210748FFF79DFB020006484FF493
:10239000007104D00022BDE81040FEF7EBB8012226
:1023A000F9E70000A40500200010004800F1080132
:1023B0004FF0FF32C0E90112C160016100210160EC
:1023C000704700210161704730B50B685A1C02D07C
:1023D00000F1080202E0026904E022465468256820
:1023E0009D42FAD953684B6099608A6051600861D8
:1023F0000168491C016030BDBF2080F31188BFF324
:102400004F8FBFF36F8F02480168491C016070470E
:102410008C00002003490868401E086001D180F349
:10242000118870478C00002070B500281BD00E4D1D
:10243000A0F1080461686869014214D02268002A8A
:1024400011D18143616000F009F96068696808444E
:1024500068602046FFF750FD2869401C2861BDE8F0
:10246000704000F07BBB70BD6C0000204FF0E0209E
:1024700000210161816102494161072101617047C9
:102480003F19010070B50022002915D00B4C002324
:1024900004EBC3056E68864202D104EBC30207E079
:1024A0001AB954F8336006B92A465B1C0A2BEFD3DD
:1024B000002A01D0C2E9001070BD00001C0B0020F2
:1024C00070B515460E460446FFF796FF94F9441082
:1024D0000020491C01D184F8440094F94510491C9E
:1024E00001D184F84500FFF795FFA06B28B92A4673
:1024F000314604F1240000F05BF82046BDE870404E
:10250000FFF772BE064D4FF4004440F2DC56214600
:102510002846FEF727F8304600F014F8F7E70000E9
:1025200000100048064D4FF480744FF4FA662146BF
:102530002846FEF717F8304600F004F8F7E70000E9
:102540000010004810B5020009D000F087F8002103
:102550001046FFF715FB00F001FB002807D10449E6
:102560004FF080500860BFF34F8FBFF36F8F10BDE7
:1025700004ED00E002490A6A0260C96841607047E0
:102580001800002001490120C86170471800002090
:1025900010B50C46054909681831FFF715FF2046AC
:1025A000BDE810400121FFF7EBBA00001800002041
:1025B000F0B40C460D4943680D68EB619D680E68E8
:1025C00035620D689E68183575600D6818359D6018
:1025D000096888620168491C01600AB14FF0FF3444
:1025E0002046F0BC1146FFF7CBBA000018000020CF
:1025F00030B587B00024039405AA04A903A8049465
:10260000FFF7AAFEDDE903010094CDE901100023E4
:102610000EA11048059A00F0A0F90F4DE86290B1A4
:1026200000F026FB01280ED1BF2080F31188BFF3F4
:102630004F8FBFF36F8F4FF0FF30A86201206861AA
:10264000EC6000F03BF8286B07B030BD49444C45C6
:1026500000000000D51D0008180000200248416B52
:10266000491C41637047000018000020114810B554
:10267000416B11B10121C16110BD0021C16102692D
:102680000D4900E0521E02EB820351F82330002B6B
:10269000F8D002EB820301EB830101F108044B68DF
:1026A0005B684B60A34201D15B684B60D9680160F5
:1026B000026110BD180000206C0B00200C4810B502
:1026C000016841F47F010160016841F07F410160D0
:1026D000FFF7CCFE074900200860FDF785FD06489E
:1026E000016841F040410160FDF76AFD002010BD26
:1026F00020ED00E08C00002034EF00E038B500242D
:10270000049D60B15BB10AB109B908E039B91C4652
:10271000012384F846302B460094FFF78DFB2046BA
:1027200038BD00002DE9F0410F4604004FF00106CE
:102730003CD0E06BC8B3B51EB5FBF0F1206C814214
:1027400034D3FFF759FED4E90F20216802FB0011B2
:10275000A1600021A163216861600A46D4E90F01EC
:10276000401E00FB01212046E16000F8445F4570F7
:1027700004F110004FB1FFF719FE04F12400FFF738
:1027800015FE00BFFFF746FE11E021690029F9D0D0
:1027900000F082F90028F5D006494FF0805008601B
:1027A000BFF34F8FBFF36F8FECE7FFE70026304694
:1027B000BDE8F08104ED00E02DE9F7470026DFF8E1
:1027C000E48083B08A460446B1464FF0805700BF8C
:1027D000FFF712FEA56BC5B151462046FFF7B0FAD0
:1027E0006D1EA563206950B104F1100000F054F98A
:1027F00028B1C8F80070BFF34F8FBFF36F8FFFF79A
:1028000009FE012006B0BDE8F087059808B11EB1A9
:1028100006E0FFF7FFFD27E06846FFF7ABFE012665
:10282000FFF7F8FDFFF71AFFFFF7E6FD94F9440004
:10283000401C01D184F8449094F94500401C01D11A
:1028400084F84590FFF7E6FD05A9684600F02CF8EE
:10285000002820460AD0FFF7C7FC00F07FF9204689
:10286000FFF78CFB0028B3D00020CBE7FFF786FBF7
:1028700090B104F124000599FFF78AFE2046FFF786
:10288000B3FC00F06BF90028A2D1C8F80070BFF3C8
:102890004F8FBFF36F8F9BE72046FFF7A5FC00F03B
:1028A0005DF995E704ED00E02DE9F0410C460546A1
:1028B000FFF7A2FD114EF2686B682168D01A4F1C19
:1028C0000AD02F68D6F820C00026674506D093426C
:1028D00004D8012526600BE0002509E0814205D9D6
:1028E000081A20602846FFF745FEF5E70125266017
:1028F000FFF790FD2846BDE8F08100001800002099
:102900002DE9FF5F8346DDE90E87994616468A4624
:102910009000FFF79FFC05001CD05C20FFF79AFC9D
:10292000040014D00020256384F85900CDE902404A
:10293000CDE900874B46324651465846FFF78EFA9E
:102940002046FFF759F9012004B0BDE8F09F284662
:10295000FFF76AFD4FF0FF30F6E7F0B585B00026CF
:10296000DDE90B540A9F7CB175B12563022584F81B
:10297000595004AD00970396CDE90154FFF76EFA64
:102980002046FFF739F900E00496049805B0F0BD41
:102990000148C06870470000180000202DE9F04190
:1029A0003B4C0026606B28B1A069401CA0613046FA
:1029B000BDE8F081E5686D1CE56008D1A06BE16BB6
:1029C000A163E063206A401C2062FFF7C1FBA06A9C
:1029D00085420BD34FF0000CA06B006858B1A06B80
:1029E000C068C1684868854208D2A062E0690028D2
:1029F000DDD00126DBE74FF0FF30F6E7D1E9023208
:102A000048699A60D1E902235A6043680A1D9342DB
:102A100001D1CB684360C1F814C003685B1E03603A
:102A2000886A88B1D1E907379F60D1E907377B60B1
:102A3000476801F118039F4201D10B6A4360C1F856
:102A400028C003685B1E0360C86A2369984200D9E6
:102A50002061104B00EB800003EB80004068886031
:102A60008768CF6087687A608260C86A00EB800000
:102A700003EB80024A6153F82020521C43F82020C7
:102A8000C86A2168C96A8842A6D30126A4E7000063
:102A9000180000206C0B002030B5C068C06800F141
:102AA0001804D0E90732816A9A60D0E907235A6096
:102AB0004A68A24201D1026A4A60002585620A681A
:102AC000521E0A6023494A6B9AB1234A5368C36174
:102AD0009D6805629D686C609C60826213685B1CE7
:102AE0001360C06A0A68D26A904231D90120C86175
:102AF00030BDD0E902424369A260D0E9022462609D
:102B00005C68021D944201D1C4685C6045611C6828
:102B1000641E1C60C36A0C69A34200D90B6103EBFD
:102B200083040D4B8C3B03EB840464688460A568CC
:102B3000C560A5686A60A260C26A02EB820203EB0C
:102B40008204446153F82240641C43F82240C8E7E1
:102B5000002030BD18000020F80B00202DE9F041C6
:102B600000242746FFF748FC3E4D686B401E686313
:102B7000686B002870D1A8683B4A00264FF0010816
:102B8000E8BB69E0D068C468D4E90731A06A9960FD
:102B9000D4E907135960436804F118018B4201D14D
:102BA000216A4160A6620168491E0160D4E90231D0
:102BB00060699960D4E9021359604368211D8B4212
:102BC00001D1E3684360666103685B1E0360E06AED
:102BD0002B69984200D92861234B00EB80008C3B85
:102BE00003EB80004068A060D0F808C0C4F80CC0B7
:102BF000D0F808C0CCF804108160E06A00E010E072
:102C000000EB800003EB8001616153F82010491C48
:102C100043F82010E06A2968C96A884201D3C5F8E0
:102C20001C8010680028ADD10CB1FFF791FAAC6997
:102C300044B100BFFFF7B2FE08B1C5F81C80641EA6
:102C4000F8D1AE61E86938B1084901273807086052
:102C5000BFF34F8FBFF36F8FFFF7DCFB3846BDE844
:102C6000F081000018000020F80B002004ED00E0C7
:102C700030B587B00024FFF737F80E4D2868A8B1AB
:102C800000200390049005AA04A903A8FFF76EFB97
:102C9000DDE9032103208DE80700002306A1084891
:102CA000059AFFF75AFE686000B1012407B020467C
:102CB00030BD000058000020546D72205376630030
:102CC000C521000802030405060708090A0B0C0DBC
:102CD0000E0F10100102030405060708090A0B0C69
:102CE0000D0E0F10000000000000000001020304A0
:102CF0000607080900000000010203041C2D00085B
:102D00000000002090000000A61A0008AC2D00086A
:102D100090000020C0580000B61A00080000000013
:102D20000000000001000000100000000000000092
:102D300000127A0000000000000000000000000007
:102D40000000000000000000000000000000000083
:102D50000000000000000000000000000000000073
:102D6000000000000400000000000000000000005F
:102D70000000000000000000000000000000000053
:102D80000000000000000000000000000000000043
:102D90000000000000000000000000000000000033
:0C2DA0000000000000000000AAAAAAAA7F
:040000050800018965
:00000001FF
